{
	"data": {
		"bytecode": {
			"linkReferences": {},
			"object": "60806040525f6030557350d3b84a2b1787b7704dd50c67733b6b5b29362960315f6101000a81548173ffffffffffffffffffffffffffffffffffffffff021916908373ffffffffffffffffffffffffffffffffffffffff1602179055503480156066575f80fd5b50611822806100745f395ff3fe60806040526004361061009b575f3560e01c80636f9fb98a116100635780636f9fb98a146101925780638aeeae49146101bd5780638f283970146101ed5780638f62744414610215578063be4fb14d1461023f578063f851a440146102695761009b565b8063124e7ccb1461009f57806342ac3854146100dc57806345d15e16146101185780634d63e2061461014057806352ba15e61461017c575b5f80fd5b3480156100aa575f80fd5b506100c560048036038101906100c09190610ede565b610293565b6040516100d3929190610f57565b60405180910390f35b3480156100e7575f80fd5b5061010260048036038101906100fd9190610ede565b6102d9565b60405161010f9190610f98565b60405180910390f35b348015610123575f80fd5b5061013e60048036038101906101399190610fdb565b6105ab565b005b34801561014b575f80fd5b5061016660048036038101906101619190610ede565b610836565b6040516101739190611019565b60405180910390f35b348015610187575f80fd5b50610190610869565b005b34801561019d575f80fd5b506101a6610968565b6040516101b4929190611032565b60405180910390f35b6101d760048036038101906101d29190610ede565b61098d565b6040516101e49190610f98565b60405180910390f35b3480156101f8575f80fd5b50610213600480360381019061020e9190611059565b610cd3565b005b348015610220575f80fd5b50610229610dda565b6040516102369190611129565b60405180910390f35b34801561024a575f80fd5b50610253610e59565b6040516102609190611143565b60405180910390f35b348015610274575f80fd5b5061027d610e5f565b60405161028a919061117c565b60405180910390f35b601081601081106102a2575f80fd5b600202015f91509050805f015f9054906101000a900473ffffffffffffffffffffffffffffffffffffffff16908060010154905082565b5f8082101580156102eb5750600f8211155b61032a576040517f08c379a0000000000000000000000000000000000000000000000000000000008152600401610321906111ef565b60405180910390fd5b5f73ffffffffffffffffffffffffffffffffffffffff165f83601081106103545761035361120d565b5b015f9054906101000a900473ffffffffffffffffffffffffffffffffffffffff1673ffffffffffffffffffffffffffffffffffffffff16146103cb576040517f08c379a00000000000000000000000000000000000000000000000000000000081526004016103c290611284565b60405180910390fd5b5f601083601081106103e0576103df61120d565b5b600202016040518060400160405290815f82015f9054906101000a900473ffffffffffffffffffffffffffffffffffffffff1673ffffffffffffffffffffffffffffffffffffffff1673ffffffffffffffffffffffffffffffffffffffff16815260200160018201548152505090505f73ffffffffffffffffffffffffffffffffffffffff16815f015173ffffffffffffffffffffffffffffffffffffffff16146104d8576078816020015161049691906112cf565b42116104d7576040517f08c379a00000000000000000000000000000000000000000000000000000000081526004016104ce90611372565b60405180910390fd5b5b60405180604001604052803373ffffffffffffffffffffffffffffffffffffffff16815260200142815250601084601081106105175761051661120d565b5b600202015f820151815f015f6101000a81548173ffffffffffffffffffffffffffffffffffffffff021916908373ffffffffffffffffffffffffffffffffffffffff160217905550602082015181600101559050507f1b30e0a556ea9ec102edf7e7869684d78efe978a98e6ea23b86dd868b33508cf604051610599906113da565b60405180910390a16001915050919050565b5f82101580156105bc5750600f8211155b6105fb576040517f08c379a00000000000000000000000000000000000000000000000000000000081526004016105f2906111ef565b60405180910390fd5b5f73ffffffffffffffffffffffffffffffffffffffff165f83601081106106255761062461120d565b5b015f9054906101000a900473ffffffffffffffffffffffffffffffffffffffff1673ffffffffffffffffffffffffffffffffffffffff160361069c576040517f08c379a000000000000000000000000000000000000000000000000000000000815260040161069390611468565b60405180910390fd5b3373ffffffffffffffffffffffffffffffffffffffff165f83601081106106c6576106c561120d565b5b015f9054906101000a900473ffffffffffffffffffffffffffffffffffffffff1673ffffffffffffffffffffffffffffffffffffffff161461073d576040517f08c379a0000000000000000000000000000000000000000000000000000000008152600401610734906114f6565b60405180910390fd5b5f73ffffffffffffffffffffffffffffffffffffffff168173ffffffffffffffffffffffffffffffffffffffff16036107ab576040517f08c379a00000000000000000000000000000000000000000000000000000000081526004016107a29061155e565b60405180910390fd5b805f83601081106107bf576107be61120d565b5b015f6101000a81548173ffffffffffffffffffffffffffffffffffffffff021916908373ffffffffffffffffffffffffffffffffffffffff1602179055507f1b30e0a556ea9ec102edf7e7869684d78efe978a98e6ea23b86dd868b33508cf60405161082a906115c6565b60405180910390a15050565b5f8160108110610844575f80fd5b015f915054906101000a900473ffffffffffffffffffffffffffffffffffffffff1681565b60315f9054906101000a900473ffffffffffffffffffffffffffffffffffffffff1673ffffffffffffffffffffffffffffffffffffffff163373ffffffffffffffffffffffffffffffffffffffff16146108f8576040517f08c379a00000000000000000000000000000000000000000000000000000000081526004016108ef9061162e565b60405180910390fd5b60315f9054906101000a900473ffffffffffffffffffffffffffffffffffffffff1673ffffffffffffffffffffffffffffffffffffffff166108fc60305490811502906040515f60405180830381858888f1935050505015801561095e573d5f803e3d5ffd5b505f603081905550565b5f803073ffffffffffffffffffffffffffffffffffffffff1631603054915091509091565b5f80821015801561099f5750600f8211155b6109a7575f80fd5b5f73ffffffffffffffffffffffffffffffffffffffff165f83601081106109d1576109d061120d565b5b015f9054906101000a900473ffffffffffffffffffffffffffffffffffffffff1673ffffffffffffffffffffffffffffffffffffffff1614610a48576040517f08c379a0000000000000000000000000000000000000000000000000000000008152600401610a3f90611696565b60405180910390fd5b5f60108360108110610a5d57610a5c61120d565b5b600202016040518060400160405290815f82015f9054906101000a900473ffffffffffffffffffffffffffffffffffffffff1673ffffffffffffffffffffffffffffffffffffffff1673ffffffffffffffffffffffffffffffffffffffff16815260200160018201548152505090505f73ffffffffffffffffffffffffffffffffffffffff16815f015173ffffffffffffffffffffffffffffffffffffffff1614610b74573373ffffffffffffffffffffffffffffffffffffffff16815f015173ffffffffffffffffffffffffffffffffffffffff1614610b73576040517f08c379a0000000000000000000000000000000000000000000000000000000008152600401610b6a90611372565b60405180910390fd5b5b343414610bb6576040517f08c379a0000000000000000000000000000000000000000000000000000000008152600401610bad906116fe565b60405180910390fd5b3460305f828254610bc791906112cf565b925050819055505f600190505f73ffffffffffffffffffffffffffffffffffffffff165f8560108110610bfd57610bfc61120d565b5b015f9054906101000a900473ffffffffffffffffffffffffffffffffffffffff1673ffffffffffffffffffffffffffffffffffffffff1603610cc557335f8560108110610c4d57610c4c61120d565b5b015f6101000a81548173ffffffffffffffffffffffffffffffffffffffff021916908373ffffffffffffffffffffffffffffffffffffffff1602179055507f1b30e0a556ea9ec102edf7e7869684d78efe978a98e6ea23b86dd868b33508cf604051610cb890611766565b60405180910390a1610cc9565b5f90505b8092505050919050565b60315f9054906101000a900473ffffffffffffffffffffffffffffffffffffffff1673ffffffffffffffffffffffffffffffffffffffff163373ffffffffffffffffffffffffffffffffffffffff1614610d62576040517f08c379a0000000000000000000000000000000000000000000000000000000008152600401610d599061162e565b60405180910390fd5b8060315f6101000a81548173ffffffffffffffffffffffffffffffffffffffff021916908373ffffffffffffffffffffffffffffffffffffffff1602179055507f1b30e0a556ea9ec102edf7e7869684d78efe978a98e6ea23b86dd868b33508cf604051610dcf906117ce565b60405180910390a150565b610de2610e84565b5f601080602002604051908101604052809291908260108015610e4f576020028201915b815f9054906101000a900473ffffffffffffffffffffffffffffffffffffffff1673ffffffffffffffffffffffffffffffffffffffff1681526020019060010190808311610e06575b5050505050905090565b60305481565b60315f9054906101000a900473ffffffffffffffffffffffffffffffffffffffff1681565b604051806102000160405280601090602082028036833780820191505090505090565b5f80fd5b5f819050919050565b610ebd81610eab565b8114610ec7575f80fd5b50565b5f81359050610ed881610eb4565b92915050565b5f60208284031215610ef357610ef2610ea7565b5b5f610f0084828501610eca565b91505092915050565b5f73ffffffffffffffffffffffffffffffffffffffff82169050919050565b5f610f3282610f09565b9050919050565b610f4281610f28565b82525050565b610f5181610eab565b82525050565b5f604082019050610f6a5f830185610f39565b610f776020830184610f48565b9392505050565b5f8115159050919050565b610f9281610f7e565b82525050565b5f602082019050610fab5f830184610f89565b92915050565b610fba81610f28565b8114610fc4575f80fd5b50565b5f81359050610fd581610fb1565b92915050565b5f8060408385031215610ff157610ff0610ea7565b5b5f610ffe85828601610eca565b925050602061100f85828601610fc7565b9150509250929050565b5f60208201905061102c5f830184610f39565b92915050565b5f6040820190506110455f830185610f48565b6110526020830184610f48565b9392505050565b5f6020828403121561106e5761106d610ea7565b5b5f61107b84828501610fc7565b91505092915050565b5f60109050919050565b5f81905092915050565b5f819050919050565b6110aa81610f28565b82525050565b5f6110bb83836110a1565b60208301905092915050565b5f602082019050919050565b6110dc81611084565b6110e6818461108e565b92506110f182611098565b805f5b8381101561112157815161110887826110b0565b9650611113836110c7565b9250506001810190506110f4565b505050505050565b5f6102008201905061113d5f8301846110d3565b92915050565b5f6020820190506111565f830184610f48565b92915050565b5f61116682610f09565b9050919050565b6111768161115c565b82525050565b5f60208201905061118f5f83018461116d565b92915050565b5f82825260208201905092915050565b7f496e76616c6964207469636b657420696e6465780000000000000000000000005f82015250565b5f6111d9601483611195565b91506111e4826111a5565b602082019050919050565b5f6020820190508181035f830152611206816111cd565b9050919050565b7f4e487b71000000000000000000000000000000000000000000000000000000005f52603260045260245ffd5b7f54686973207469636b657420697320616c7265616479207075726368617365645f82015250565b5f61126e602083611195565b91506112798261123a565b602082019050919050565b5f6020820190508181035f83015261129b81611262565b9050919050565b7f4e487b71000000000000000000000000000000000000000000000000000000005f52601160045260245ffd5b5f6112d982610eab565b91506112e483610eab565b92508282019050808211156112fc576112fb6112a2565b5b92915050565b7f54686973207469636b657420697320726573657276656420627920616e6f74685f8201527f6572207573657200000000000000000000000000000000000000000000000000602082015250565b5f61135c602783611195565b915061136782611302565b604082019050919050565b5f6020820190508181035f83015261138981611350565b9050919050565b7f54696b657420626f6f6b656400000000000000000000000000000000000000005f82015250565b5f6113c4600c83611195565b91506113cf82611390565b602082019050919050565b5f6020820190508181035f8301526113f1816113b8565b9050919050565b7f54686973207469636b657420686173206e6f74206265656e20707572636861735f8201527f6564000000000000000000000000000000000000000000000000000000000000602082015250565b5f611452602283611195565b915061145d826113f8565b604082019050919050565b5f6020820190508181035f83015261147f81611446565b9050919050565b7f596f7520617265206e6f7420746865206f776e6572206f6620746869732074695f8201527f636b657400000000000000000000000000000000000000000000000000000000602082015250565b5f6114e0602483611195565b91506114eb82611486565b604082019050919050565b5f6020820190508181035f83015261150d816114d4565b9050919050565b7f496e76616c6964206164647265737300000000000000000000000000000000005f82015250565b5f611548600f83611195565b915061155382611514565b602082019050919050565b5f6020820190508181035f8301526115758161153c565b9050919050565b7f54696b6574207472616e7366657269646f0000000000000000000000000000005f82015250565b5f6115b0601183611195565b91506115bb8261157c565b602082019050919050565b5f6020820190508181035f8301526115dd816115a4565b9050919050565b7f4e6f206572657320656c2061646d696e000000000000000000000000000000005f82015250565b5f611618601083611195565b9150611623826115e4565b602082019050919050565b5f6020820190508181035f8301526116458161160c565b9050919050565b7f54686973207469636b65742069732066726f6d206f7468657220706572736f6e5f82015250565b5f611680602083611195565b915061168b8261164c565b602082019050919050565b5f6020820190508181035f8301526116ad81611674565b9050919050565b7f496e737566696369656e7420616d6f756e74206f6620424e42000000000000005f82015250565b5f6116e8601983611195565b91506116f3826116b4565b602082019050919050565b5f6020820190508181035f830152611715816116dc565b9050919050565b7f54696b657420636f6d707261646f0000000000000000000000000000000000005f82015250565b5f611750600e83611195565b915061175b8261171c565b602082019050919050565b5f6020820190508181035f83015261177d81611744565b9050919050565b7f41646d696e2063616d626961646f0000000000000000000000000000000000005f82015250565b5f6117b8600e83611195565b91506117c382611784565b602082019050919050565b5f6020820190508181035f8301526117e5816117ac565b905091905056fea26469706673582212208c5dbefe8bbc059916b4284ba081e021dc9372c786620cb6ffc14aeb5e7bc49f64736f6c634300081a0033",
			"opcodes": "PUSH1 0x80 PUSH1 0x40 MSTORE PUSH0 PUSH1 0x30 SSTORE PUSH20 0x50D3B84A2B1787B7704DD50C67733B6B5B293629 PUSH1 0x31 PUSH0 PUSH2 0x100 EXP DUP2 SLOAD DUP2 PUSH20 0xFFFFFFFFFFFFFFFFFFFFFFFFFFFFFFFFFFFFFFFF MUL NOT AND SWAP1 DUP4 PUSH20 0xFFFFFFFFFFFFFFFFFFFFFFFFFFFFFFFFFFFFFFFF AND MUL OR SWAP1 SSTORE POP CALLVALUE DUP1 ISZERO PUSH1 0x66 JUMPI PUSH0 DUP1 REVERT JUMPDEST POP PUSH2 0x1822 DUP1 PUSH2 0x74 PUSH0 CODECOPY PUSH0 RETURN INVALID PUSH1 0x80 PUSH1 0x40 MSTORE PUSH1 0x4 CALLDATASIZE LT PUSH2 0x9B JUMPI PUSH0 CALLDATALOAD PUSH1 0xE0 SHR DUP1 PUSH4 0x6F9FB98A GT PUSH2 0x63 JUMPI DUP1 PUSH4 0x6F9FB98A EQ PUSH2 0x192 JUMPI DUP1 PUSH4 0x8AEEAE49 EQ PUSH2 0x1BD JUMPI DUP1 PUSH4 0x8F283970 EQ PUSH2 0x1ED JUMPI DUP1 PUSH4 0x8F627444 EQ PUSH2 0x215 JUMPI DUP1 PUSH4 0xBE4FB14D EQ PUSH2 0x23F JUMPI DUP1 PUSH4 0xF851A440 EQ PUSH2 0x269 JUMPI PUSH2 0x9B JUMP JUMPDEST DUP1 PUSH4 0x124E7CCB EQ PUSH2 0x9F JUMPI DUP1 PUSH4 0x42AC3854 EQ PUSH2 0xDC JUMPI DUP1 PUSH4 0x45D15E16 EQ PUSH2 0x118 JUMPI DUP1 PUSH4 0x4D63E206 EQ PUSH2 0x140 JUMPI DUP1 PUSH4 0x52BA15E6 EQ PUSH2 0x17C JUMPI JUMPDEST PUSH0 DUP1 REVERT JUMPDEST CALLVALUE DUP1 ISZERO PUSH2 0xAA JUMPI PUSH0 DUP1 REVERT JUMPDEST POP PUSH2 0xC5 PUSH1 0x4 DUP1 CALLDATASIZE SUB DUP2 ADD SWAP1 PUSH2 0xC0 SWAP2 SWAP1 PUSH2 0xEDE JUMP JUMPDEST PUSH2 0x293 JUMP JUMPDEST PUSH1 0x40 MLOAD PUSH2 0xD3 SWAP3 SWAP2 SWAP1 PUSH2 0xF57 JUMP JUMPDEST PUSH1 0x40 MLOAD DUP1 SWAP2 SUB SWAP1 RETURN JUMPDEST CALLVALUE DUP1 ISZERO PUSH2 0xE7 JUMPI PUSH0 DUP1 REVERT JUMPDEST POP PUSH2 0x102 PUSH1 0x4 DUP1 CALLDATASIZE SUB DUP2 ADD SWAP1 PUSH2 0xFD SWAP2 SWAP1 PUSH2 0xEDE JUMP JUMPDEST PUSH2 0x2D9 JUMP JUMPDEST PUSH1 0x40 MLOAD PUSH2 0x10F SWAP2 SWAP1 PUSH2 0xF98 JUMP JUMPDEST PUSH1 0x40 MLOAD DUP1 SWAP2 SUB SWAP1 RETURN JUMPDEST CALLVALUE DUP1 ISZERO PUSH2 0x123 JUMPI PUSH0 DUP1 REVERT JUMPDEST POP PUSH2 0x13E PUSH1 0x4 DUP1 CALLDATASIZE SUB DUP2 ADD SWAP1 PUSH2 0x139 SWAP2 SWAP1 PUSH2 0xFDB JUMP JUMPDEST PUSH2 0x5AB JUMP JUMPDEST STOP JUMPDEST CALLVALUE DUP1 ISZERO PUSH2 0x14B JUMPI PUSH0 DUP1 REVERT JUMPDEST POP PUSH2 0x166 PUSH1 0x4 DUP1 CALLDATASIZE SUB DUP2 ADD SWAP1 PUSH2 0x161 SWAP2 SWAP1 PUSH2 0xEDE JUMP JUMPDEST PUSH2 0x836 JUMP JUMPDEST PUSH1 0x40 MLOAD PUSH2 0x173 SWAP2 SWAP1 PUSH2 0x1019 JUMP JUMPDEST PUSH1 0x40 MLOAD DUP1 SWAP2 SUB SWAP1 RETURN JUMPDEST CALLVALUE DUP1 ISZERO PUSH2 0x187 JUMPI PUSH0 DUP1 REVERT JUMPDEST POP PUSH2 0x190 PUSH2 0x869 JUMP JUMPDEST STOP JUMPDEST CALLVALUE DUP1 ISZERO PUSH2 0x19D JUMPI PUSH0 DUP1 REVERT JUMPDEST POP PUSH2 0x1A6 PUSH2 0x968 JUMP JUMPDEST PUSH1 0x40 MLOAD PUSH2 0x1B4 SWAP3 SWAP2 SWAP1 PUSH2 0x1032 JUMP JUMPDEST PUSH1 0x40 MLOAD DUP1 SWAP2 SUB SWAP1 RETURN JUMPDEST PUSH2 0x1D7 PUSH1 0x4 DUP1 CALLDATASIZE SUB DUP2 ADD SWAP1 PUSH2 0x1D2 SWAP2 SWAP1 PUSH2 0xEDE JUMP JUMPDEST PUSH2 0x98D JUMP JUMPDEST PUSH1 0x40 MLOAD PUSH2 0x1E4 SWAP2 SWAP1 PUSH2 0xF98 JUMP JUMPDEST PUSH1 0x40 MLOAD DUP1 SWAP2 SUB SWAP1 RETURN JUMPDEST CALLVALUE DUP1 ISZERO PUSH2 0x1F8 JUMPI PUSH0 DUP1 REVERT JUMPDEST POP PUSH2 0x213 PUSH1 0x4 DUP1 CALLDATASIZE SUB DUP2 ADD SWAP1 PUSH2 0x20E SWAP2 SWAP1 PUSH2 0x1059 JUMP JUMPDEST PUSH2 0xCD3 JUMP JUMPDEST STOP JUMPDEST CALLVALUE DUP1 ISZERO PUSH2 0x220 JUMPI PUSH0 DUP1 REVERT JUMPDEST POP PUSH2 0x229 PUSH2 0xDDA JUMP JUMPDEST PUSH1 0x40 MLOAD PUSH2 0x236 SWAP2 SWAP1 PUSH2 0x1129 JUMP JUMPDEST PUSH1 0x40 MLOAD DUP1 SWAP2 SUB SWAP1 RETURN JUMPDEST CALLVALUE DUP1 ISZERO PUSH2 0x24A JUMPI PUSH0 DUP1 REVERT JUMPDEST POP PUSH2 0x253 PUSH2 0xE59 JUMP JUMPDEST PUSH1 0x40 MLOAD PUSH2 0x260 SWAP2 SWAP1 PUSH2 0x1143 JUMP JUMPDEST PUSH1 0x40 MLOAD DUP1 SWAP2 SUB SWAP1 RETURN JUMPDEST CALLVALUE DUP1 ISZERO PUSH2 0x274 JUMPI PUSH0 DUP1 REVERT JUMPDEST POP PUSH2 0x27D PUSH2 0xE5F JUMP JUMPDEST PUSH1 0x40 MLOAD PUSH2 0x28A SWAP2 SWAP1 PUSH2 0x117C JUMP JUMPDEST PUSH1 0x40 MLOAD DUP1 SWAP2 SUB SWAP1 RETURN JUMPDEST PUSH1 0x10 DUP2 PUSH1 0x10 DUP2 LT PUSH2 0x2A2 JUMPI PUSH0 DUP1 REVERT JUMPDEST PUSH1 0x2 MUL ADD PUSH0 SWAP2 POP SWAP1 POP DUP1 PUSH0 ADD PUSH0 SWAP1 SLOAD SWAP1 PUSH2 0x100 EXP SWAP1 DIV PUSH20 0xFFFFFFFFFFFFFFFFFFFFFFFFFFFFFFFFFFFFFFFF AND SWAP1 DUP1 PUSH1 0x1 ADD SLOAD SWAP1 POP DUP3 JUMP JUMPDEST PUSH0 DUP1 DUP3 LT ISZERO DUP1 ISZERO PUSH2 0x2EB JUMPI POP PUSH1 0xF DUP3 GT ISZERO JUMPDEST PUSH2 0x32A JUMPI PUSH1 0x40 MLOAD PUSH32 0x8C379A000000000000000000000000000000000000000000000000000000000 DUP2 MSTORE PUSH1 0x4 ADD PUSH2 0x321 SWAP1 PUSH2 0x11EF JUMP JUMPDEST PUSH1 0x40 MLOAD DUP1 SWAP2 SUB SWAP1 REVERT JUMPDEST PUSH0 PUSH20 0xFFFFFFFFFFFFFFFFFFFFFFFFFFFFFFFFFFFFFFFF AND PUSH0 DUP4 PUSH1 0x10 DUP2 LT PUSH2 0x354 JUMPI PUSH2 0x353 PUSH2 0x120D JUMP JUMPDEST JUMPDEST ADD PUSH0 SWAP1 SLOAD SWAP1 PUSH2 0x100 EXP SWAP1 DIV PUSH20 0xFFFFFFFFFFFFFFFFFFFFFFFFFFFFFFFFFFFFFFFF AND PUSH20 0xFFFFFFFFFFFFFFFFFFFFFFFFFFFFFFFFFFFFFFFF AND EQ PUSH2 0x3CB JUMPI PUSH1 0x40 MLOAD PUSH32 0x8C379A000000000000000000000000000000000000000000000000000000000 DUP2 MSTORE PUSH1 0x4 ADD PUSH2 0x3C2 SWAP1 PUSH2 0x1284 JUMP JUMPDEST PUSH1 0x40 MLOAD DUP1 SWAP2 SUB SWAP1 REVERT JUMPDEST PUSH0 PUSH1 0x10 DUP4 PUSH1 0x10 DUP2 LT PUSH2 0x3E0 JUMPI PUSH2 0x3DF PUSH2 0x120D JUMP JUMPDEST JUMPDEST PUSH1 0x2 MUL ADD PUSH1 0x40 MLOAD DUP1 PUSH1 0x40 ADD PUSH1 0x40 MSTORE SWAP1 DUP2 PUSH0 DUP3 ADD PUSH0 SWAP1 SLOAD SWAP1 PUSH2 0x100 EXP SWAP1 DIV PUSH20 0xFFFFFFFFFFFFFFFFFFFFFFFFFFFFFFFFFFFFFFFF AND PUSH20 0xFFFFFFFFFFFFFFFFFFFFFFFFFFFFFFFFFFFFFFFF AND PUSH20 0xFFFFFFFFFFFFFFFFFFFFFFFFFFFFFFFFFFFFFFFF AND DUP2 MSTORE PUSH1 0x20 ADD PUSH1 0x1 DUP3 ADD SLOAD DUP2 MSTORE POP POP SWAP1 POP PUSH0 PUSH20 0xFFFFFFFFFFFFFFFFFFFFFFFFFFFFFFFFFFFFFFFF AND DUP2 PUSH0 ADD MLOAD PUSH20 0xFFFFFFFFFFFFFFFFFFFFFFFFFFFFFFFFFFFFFFFF AND EQ PUSH2 0x4D8 JUMPI PUSH1 0x78 DUP2 PUSH1 0x20 ADD MLOAD PUSH2 0x496 SWAP2 SWAP1 PUSH2 0x12CF JUMP JUMPDEST TIMESTAMP GT PUSH2 0x4D7 JUMPI PUSH1 0x40 MLOAD PUSH32 0x8C379A000000000000000000000000000000000000000000000000000000000 DUP2 MSTORE PUSH1 0x4 ADD PUSH2 0x4CE SWAP1 PUSH2 0x1372 JUMP JUMPDEST PUSH1 0x40 MLOAD DUP1 SWAP2 SUB SWAP1 REVERT JUMPDEST JUMPDEST PUSH1 0x40 MLOAD DUP1 PUSH1 0x40 ADD PUSH1 0x40 MSTORE DUP1 CALLER PUSH20 0xFFFFFFFFFFFFFFFFFFFFFFFFFFFFFFFFFFFFFFFF AND DUP2 MSTORE PUSH1 0x20 ADD TIMESTAMP DUP2 MSTORE POP PUSH1 0x10 DUP5 PUSH1 0x10 DUP2 LT PUSH2 0x517 JUMPI PUSH2 0x516 PUSH2 0x120D JUMP JUMPDEST JUMPDEST PUSH1 0x2 MUL ADD PUSH0 DUP3 ADD MLOAD DUP2 PUSH0 ADD PUSH0 PUSH2 0x100 EXP DUP2 SLOAD DUP2 PUSH20 0xFFFFFFFFFFFFFFFFFFFFFFFFFFFFFFFFFFFFFFFF MUL NOT AND SWAP1 DUP4 PUSH20 0xFFFFFFFFFFFFFFFFFFFFFFFFFFFFFFFFFFFFFFFF AND MUL OR SWAP1 SSTORE POP PUSH1 0x20 DUP3 ADD MLOAD DUP2 PUSH1 0x1 ADD SSTORE SWAP1 POP POP PUSH32 0x1B30E0A556EA9EC102EDF7E7869684D78EFE978A98E6EA23B86DD868B33508CF PUSH1 0x40 MLOAD PUSH2 0x599 SWAP1 PUSH2 0x13DA JUMP JUMPDEST PUSH1 0x40 MLOAD DUP1 SWAP2 SUB SWAP1 LOG1 PUSH1 0x1 SWAP2 POP POP SWAP2 SWAP1 POP JUMP JUMPDEST PUSH0 DUP3 LT ISZERO DUP1 ISZERO PUSH2 0x5BC JUMPI POP PUSH1 0xF DUP3 GT ISZERO JUMPDEST PUSH2 0x5FB JUMPI PUSH1 0x40 MLOAD PUSH32 0x8C379A000000000000000000000000000000000000000000000000000000000 DUP2 MSTORE PUSH1 0x4 ADD PUSH2 0x5F2 SWAP1 PUSH2 0x11EF JUMP JUMPDEST PUSH1 0x40 MLOAD DUP1 SWAP2 SUB SWAP1 REVERT JUMPDEST PUSH0 PUSH20 0xFFFFFFFFFFFFFFFFFFFFFFFFFFFFFFFFFFFFFFFF AND PUSH0 DUP4 PUSH1 0x10 DUP2 LT PUSH2 0x625 JUMPI PUSH2 0x624 PUSH2 0x120D JUMP JUMPDEST JUMPDEST ADD PUSH0 SWAP1 SLOAD SWAP1 PUSH2 0x100 EXP SWAP1 DIV PUSH20 0xFFFFFFFFFFFFFFFFFFFFFFFFFFFFFFFFFFFFFFFF AND PUSH20 0xFFFFFFFFFFFFFFFFFFFFFFFFFFFFFFFFFFFFFFFF AND SUB PUSH2 0x69C JUMPI PUSH1 0x40 MLOAD PUSH32 0x8C379A000000000000000000000000000000000000000000000000000000000 DUP2 MSTORE PUSH1 0x4 ADD PUSH2 0x693 SWAP1 PUSH2 0x1468 JUMP JUMPDEST PUSH1 0x40 MLOAD DUP1 SWAP2 SUB SWAP1 REVERT JUMPDEST CALLER PUSH20 0xFFFFFFFFFFFFFFFFFFFFFFFFFFFFFFFFFFFFFFFF AND PUSH0 DUP4 PUSH1 0x10 DUP2 LT PUSH2 0x6C6 JUMPI PUSH2 0x6C5 PUSH2 0x120D JUMP JUMPDEST JUMPDEST ADD PUSH0 SWAP1 SLOAD SWAP1 PUSH2 0x100 EXP SWAP1 DIV PUSH20 0xFFFFFFFFFFFFFFFFFFFFFFFFFFFFFFFFFFFFFFFF AND PUSH20 0xFFFFFFFFFFFFFFFFFFFFFFFFFFFFFFFFFFFFFFFF AND EQ PUSH2 0x73D JUMPI PUSH1 0x40 MLOAD PUSH32 0x8C379A000000000000000000000000000000000000000000000000000000000 DUP2 MSTORE PUSH1 0x4 ADD PUSH2 0x734 SWAP1 PUSH2 0x14F6 JUMP JUMPDEST PUSH1 0x40 MLOAD DUP1 SWAP2 SUB SWAP1 REVERT JUMPDEST PUSH0 PUSH20 0xFFFFFFFFFFFFFFFFFFFFFFFFFFFFFFFFFFFFFFFF AND DUP2 PUSH20 0xFFFFFFFFFFFFFFFFFFFFFFFFFFFFFFFFFFFFFFFF AND SUB PUSH2 0x7AB JUMPI PUSH1 0x40 MLOAD PUSH32 0x8C379A000000000000000000000000000000000000000000000000000000000 DUP2 MSTORE PUSH1 0x4 ADD PUSH2 0x7A2 SWAP1 PUSH2 0x155E JUMP JUMPDEST PUSH1 0x40 MLOAD DUP1 SWAP2 SUB SWAP1 REVERT JUMPDEST DUP1 PUSH0 DUP4 PUSH1 0x10 DUP2 LT PUSH2 0x7BF JUMPI PUSH2 0x7BE PUSH2 0x120D JUMP JUMPDEST JUMPDEST ADD PUSH0 PUSH2 0x100 EXP DUP2 SLOAD DUP2 PUSH20 0xFFFFFFFFFFFFFFFFFFFFFFFFFFFFFFFFFFFFFFFF MUL NOT AND SWAP1 DUP4 PUSH20 0xFFFFFFFFFFFFFFFFFFFFFFFFFFFFFFFFFFFFFFFF AND MUL OR SWAP1 SSTORE POP PUSH32 0x1B30E0A556EA9EC102EDF7E7869684D78EFE978A98E6EA23B86DD868B33508CF PUSH1 0x40 MLOAD PUSH2 0x82A SWAP1 PUSH2 0x15C6 JUMP JUMPDEST PUSH1 0x40 MLOAD DUP1 SWAP2 SUB SWAP1 LOG1 POP POP JUMP JUMPDEST PUSH0 DUP2 PUSH1 0x10 DUP2 LT PUSH2 0x844 JUMPI PUSH0 DUP1 REVERT JUMPDEST ADD PUSH0 SWAP2 POP SLOAD SWAP1 PUSH2 0x100 EXP SWAP1 DIV PUSH20 0xFFFFFFFFFFFFFFFFFFFFFFFFFFFFFFFFFFFFFFFF AND DUP2 JUMP JUMPDEST PUSH1 0x31 PUSH0 SWAP1 SLOAD SWAP1 PUSH2 0x100 EXP SWAP1 DIV PUSH20 0xFFFFFFFFFFFFFFFFFFFFFFFFFFFFFFFFFFFFFFFF AND PUSH20 0xFFFFFFFFFFFFFFFFFFFFFFFFFFFFFFFFFFFFFFFF AND CALLER PUSH20 0xFFFFFFFFFFFFFFFFFFFFFFFFFFFFFFFFFFFFFFFF AND EQ PUSH2 0x8F8 JUMPI PUSH1 0x40 MLOAD PUSH32 0x8C379A000000000000000000000000000000000000000000000000000000000 DUP2 MSTORE PUSH1 0x4 ADD PUSH2 0x8EF SWAP1 PUSH2 0x162E JUMP JUMPDEST PUSH1 0x40 MLOAD DUP1 SWAP2 SUB SWAP1 REVERT JUMPDEST PUSH1 0x31 PUSH0 SWAP1 SLOAD SWAP1 PUSH2 0x100 EXP SWAP1 DIV PUSH20 0xFFFFFFFFFFFFFFFFFFFFFFFFFFFFFFFFFFFFFFFF AND PUSH20 0xFFFFFFFFFFFFFFFFFFFFFFFFFFFFFFFFFFFFFFFF AND PUSH2 0x8FC PUSH1 0x30 SLOAD SWAP1 DUP2 ISZERO MUL SWAP1 PUSH1 0x40 MLOAD PUSH0 PUSH1 0x40 MLOAD DUP1 DUP4 SUB DUP2 DUP6 DUP9 DUP9 CALL SWAP4 POP POP POP POP ISZERO DUP1 ISZERO PUSH2 0x95E JUMPI RETURNDATASIZE PUSH0 DUP1 RETURNDATACOPY RETURNDATASIZE PUSH0 REVERT JUMPDEST POP PUSH0 PUSH1 0x30 DUP2 SWAP1 SSTORE POP JUMP JUMPDEST PUSH0 DUP1 ADDRESS PUSH20 0xFFFFFFFFFFFFFFFFFFFFFFFFFFFFFFFFFFFFFFFF AND BALANCE PUSH1 0x30 SLOAD SWAP2 POP SWAP2 POP SWAP1 SWAP2 JUMP JUMPDEST PUSH0 DUP1 DUP3 LT ISZERO DUP1 ISZERO PUSH2 0x99F JUMPI POP PUSH1 0xF DUP3 GT ISZERO JUMPDEST PUSH2 0x9A7 JUMPI PUSH0 DUP1 REVERT JUMPDEST PUSH0 PUSH20 0xFFFFFFFFFFFFFFFFFFFFFFFFFFFFFFFFFFFFFFFF AND PUSH0 DUP4 PUSH1 0x10 DUP2 LT PUSH2 0x9D1 JUMPI PUSH2 0x9D0 PUSH2 0x120D JUMP JUMPDEST JUMPDEST ADD PUSH0 SWAP1 SLOAD SWAP1 PUSH2 0x100 EXP SWAP1 DIV PUSH20 0xFFFFFFFFFFFFFFFFFFFFFFFFFFFFFFFFFFFFFFFF AND PUSH20 0xFFFFFFFFFFFFFFFFFFFFFFFFFFFFFFFFFFFFFFFF AND EQ PUSH2 0xA48 JUMPI PUSH1 0x40 MLOAD PUSH32 0x8C379A000000000000000000000000000000000000000000000000000000000 DUP2 MSTORE PUSH1 0x4 ADD PUSH2 0xA3F SWAP1 PUSH2 0x1696 JUMP JUMPDEST PUSH1 0x40 MLOAD DUP1 SWAP2 SUB SWAP1 REVERT JUMPDEST PUSH0 PUSH1 0x10 DUP4 PUSH1 0x10 DUP2 LT PUSH2 0xA5D JUMPI PUSH2 0xA5C PUSH2 0x120D JUMP JUMPDEST JUMPDEST PUSH1 0x2 MUL ADD PUSH1 0x40 MLOAD DUP1 PUSH1 0x40 ADD PUSH1 0x40 MSTORE SWAP1 DUP2 PUSH0 DUP3 ADD PUSH0 SWAP1 SLOAD SWAP1 PUSH2 0x100 EXP SWAP1 DIV PUSH20 0xFFFFFFFFFFFFFFFFFFFFFFFFFFFFFFFFFFFFFFFF AND PUSH20 0xFFFFFFFFFFFFFFFFFFFFFFFFFFFFFFFFFFFFFFFF AND PUSH20 0xFFFFFFFFFFFFFFFFFFFFFFFFFFFFFFFFFFFFFFFF AND DUP2 MSTORE PUSH1 0x20 ADD PUSH1 0x1 DUP3 ADD SLOAD DUP2 MSTORE POP POP SWAP1 POP PUSH0 PUSH20 0xFFFFFFFFFFFFFFFFFFFFFFFFFFFFFFFFFFFFFFFF AND DUP2 PUSH0 ADD MLOAD PUSH20 0xFFFFFFFFFFFFFFFFFFFFFFFFFFFFFFFFFFFFFFFF AND EQ PUSH2 0xB74 JUMPI CALLER PUSH20 0xFFFFFFFFFFFFFFFFFFFFFFFFFFFFFFFFFFFFFFFF AND DUP2 PUSH0 ADD MLOAD PUSH20 0xFFFFFFFFFFFFFFFFFFFFFFFFFFFFFFFFFFFFFFFF AND EQ PUSH2 0xB73 JUMPI PUSH1 0x40 MLOAD PUSH32 0x8C379A000000000000000000000000000000000000000000000000000000000 DUP2 MSTORE PUSH1 0x4 ADD PUSH2 0xB6A SWAP1 PUSH2 0x1372 JUMP JUMPDEST PUSH1 0x40 MLOAD DUP1 SWAP2 SUB SWAP1 REVERT JUMPDEST JUMPDEST CALLVALUE CALLVALUE EQ PUSH2 0xBB6 JUMPI PUSH1 0x40 MLOAD PUSH32 0x8C379A000000000000000000000000000000000000000000000000000000000 DUP2 MSTORE PUSH1 0x4 ADD PUSH2 0xBAD SWAP1 PUSH2 0x16FE JUMP JUMPDEST PUSH1 0x40 MLOAD DUP1 SWAP2 SUB SWAP1 REVERT JUMPDEST CALLVALUE PUSH1 0x30 PUSH0 DUP3 DUP3 SLOAD PUSH2 0xBC7 SWAP2 SWAP1 PUSH2 0x12CF JUMP JUMPDEST SWAP3 POP POP DUP2 SWAP1 SSTORE POP PUSH0 PUSH1 0x1 SWAP1 POP PUSH0 PUSH20 0xFFFFFFFFFFFFFFFFFFFFFFFFFFFFFFFFFFFFFFFF AND PUSH0 DUP6 PUSH1 0x10 DUP2 LT PUSH2 0xBFD JUMPI PUSH2 0xBFC PUSH2 0x120D JUMP JUMPDEST JUMPDEST ADD PUSH0 SWAP1 SLOAD SWAP1 PUSH2 0x100 EXP SWAP1 DIV PUSH20 0xFFFFFFFFFFFFFFFFFFFFFFFFFFFFFFFFFFFFFFFF AND PUSH20 0xFFFFFFFFFFFFFFFFFFFFFFFFFFFFFFFFFFFFFFFF AND SUB PUSH2 0xCC5 JUMPI CALLER PUSH0 DUP6 PUSH1 0x10 DUP2 LT PUSH2 0xC4D JUMPI PUSH2 0xC4C PUSH2 0x120D JUMP JUMPDEST JUMPDEST ADD PUSH0 PUSH2 0x100 EXP DUP2 SLOAD DUP2 PUSH20 0xFFFFFFFFFFFFFFFFFFFFFFFFFFFFFFFFFFFFFFFF MUL NOT AND SWAP1 DUP4 PUSH20 0xFFFFFFFFFFFFFFFFFFFFFFFFFFFFFFFFFFFFFFFF AND MUL OR SWAP1 SSTORE POP PUSH32 0x1B30E0A556EA9EC102EDF7E7869684D78EFE978A98E6EA23B86DD868B33508CF PUSH1 0x40 MLOAD PUSH2 0xCB8 SWAP1 PUSH2 0x1766 JUMP JUMPDEST PUSH1 0x40 MLOAD DUP1 SWAP2 SUB SWAP1 LOG1 PUSH2 0xCC9 JUMP JUMPDEST PUSH0 SWAP1 POP JUMPDEST DUP1 SWAP3 POP POP POP SWAP2 SWAP1 POP JUMP JUMPDEST PUSH1 0x31 PUSH0 SWAP1 SLOAD SWAP1 PUSH2 0x100 EXP SWAP1 DIV PUSH20 0xFFFFFFFFFFFFFFFFFFFFFFFFFFFFFFFFFFFFFFFF AND PUSH20 0xFFFFFFFFFFFFFFFFFFFFFFFFFFFFFFFFFFFFFFFF AND CALLER PUSH20 0xFFFFFFFFFFFFFFFFFFFFFFFFFFFFFFFFFFFFFFFF AND EQ PUSH2 0xD62 JUMPI PUSH1 0x40 MLOAD PUSH32 0x8C379A000000000000000000000000000000000000000000000000000000000 DUP2 MSTORE PUSH1 0x4 ADD PUSH2 0xD59 SWAP1 PUSH2 0x162E JUMP JUMPDEST PUSH1 0x40 MLOAD DUP1 SWAP2 SUB SWAP1 REVERT JUMPDEST DUP1 PUSH1 0x31 PUSH0 PUSH2 0x100 EXP DUP2 SLOAD DUP2 PUSH20 0xFFFFFFFFFFFFFFFFFFFFFFFFFFFFFFFFFFFFFFFF MUL NOT AND SWAP1 DUP4 PUSH20 0xFFFFFFFFFFFFFFFFFFFFFFFFFFFFFFFFFFFFFFFF AND MUL OR SWAP1 SSTORE POP PUSH32 0x1B30E0A556EA9EC102EDF7E7869684D78EFE978A98E6EA23B86DD868B33508CF PUSH1 0x40 MLOAD PUSH2 0xDCF SWAP1 PUSH2 0x17CE JUMP JUMPDEST PUSH1 0x40 MLOAD DUP1 SWAP2 SUB SWAP1 LOG1 POP JUMP JUMPDEST PUSH2 0xDE2 PUSH2 0xE84 JUMP JUMPDEST PUSH0 PUSH1 0x10 DUP1 PUSH1 0x20 MUL PUSH1 0x40 MLOAD SWAP1 DUP2 ADD PUSH1 0x40 MSTORE DUP1 SWAP3 SWAP2 SWAP1 DUP3 PUSH1 0x10 DUP1 ISZERO PUSH2 0xE4F JUMPI PUSH1 0x20 MUL DUP3 ADD SWAP2 JUMPDEST DUP2 PUSH0 SWAP1 SLOAD SWAP1 PUSH2 0x100 EXP SWAP1 DIV PUSH20 0xFFFFFFFFFFFFFFFFFFFFFFFFFFFFFFFFFFFFFFFF AND PUSH20 0xFFFFFFFFFFFFFFFFFFFFFFFFFFFFFFFFFFFFFFFF AND DUP2 MSTORE PUSH1 0x20 ADD SWAP1 PUSH1 0x1 ADD SWAP1 DUP1 DUP4 GT PUSH2 0xE06 JUMPI JUMPDEST POP POP POP POP POP SWAP1 POP SWAP1 JUMP JUMPDEST PUSH1 0x30 SLOAD DUP2 JUMP JUMPDEST PUSH1 0x31 PUSH0 SWAP1 SLOAD SWAP1 PUSH2 0x100 EXP SWAP1 DIV PUSH20 0xFFFFFFFFFFFFFFFFFFFFFFFFFFFFFFFFFFFFFFFF AND DUP2 JUMP JUMPDEST PUSH1 0x40 MLOAD DUP1 PUSH2 0x200 ADD PUSH1 0x40 MSTORE DUP1 PUSH1 0x10 SWAP1 PUSH1 0x20 DUP3 MUL DUP1 CALLDATASIZE DUP4 CALLDATACOPY DUP1 DUP3 ADD SWAP2 POP POP SWAP1 POP POP SWAP1 JUMP JUMPDEST PUSH0 DUP1 REVERT JUMPDEST PUSH0 DUP2 SWAP1 POP SWAP2 SWAP1 POP JUMP JUMPDEST PUSH2 0xEBD DUP2 PUSH2 0xEAB JUMP JUMPDEST DUP2 EQ PUSH2 0xEC7 JUMPI PUSH0 DUP1 REVERT JUMPDEST POP JUMP JUMPDEST PUSH0 DUP2 CALLDATALOAD SWAP1 POP PUSH2 0xED8 DUP2 PUSH2 0xEB4 JUMP JUMPDEST SWAP3 SWAP2 POP POP JUMP JUMPDEST PUSH0 PUSH1 0x20 DUP3 DUP5 SUB SLT ISZERO PUSH2 0xEF3 JUMPI PUSH2 0xEF2 PUSH2 0xEA7 JUMP JUMPDEST JUMPDEST PUSH0 PUSH2 0xF00 DUP5 DUP3 DUP6 ADD PUSH2 0xECA JUMP JUMPDEST SWAP2 POP POP SWAP3 SWAP2 POP POP JUMP JUMPDEST PUSH0 PUSH20 0xFFFFFFFFFFFFFFFFFFFFFFFFFFFFFFFFFFFFFFFF DUP3 AND SWAP1 POP SWAP2 SWAP1 POP JUMP JUMPDEST PUSH0 PUSH2 0xF32 DUP3 PUSH2 0xF09 JUMP JUMPDEST SWAP1 POP SWAP2 SWAP1 POP JUMP JUMPDEST PUSH2 0xF42 DUP2 PUSH2 0xF28 JUMP JUMPDEST DUP3 MSTORE POP POP JUMP JUMPDEST PUSH2 0xF51 DUP2 PUSH2 0xEAB JUMP JUMPDEST DUP3 MSTORE POP POP JUMP JUMPDEST PUSH0 PUSH1 0x40 DUP3 ADD SWAP1 POP PUSH2 0xF6A PUSH0 DUP4 ADD DUP6 PUSH2 0xF39 JUMP JUMPDEST PUSH2 0xF77 PUSH1 0x20 DUP4 ADD DUP5 PUSH2 0xF48 JUMP JUMPDEST SWAP4 SWAP3 POP POP POP JUMP JUMPDEST PUSH0 DUP2 ISZERO ISZERO SWAP1 POP SWAP2 SWAP1 POP JUMP JUMPDEST PUSH2 0xF92 DUP2 PUSH2 0xF7E JUMP JUMPDEST DUP3 MSTORE POP POP JUMP JUMPDEST PUSH0 PUSH1 0x20 DUP3 ADD SWAP1 POP PUSH2 0xFAB PUSH0 DUP4 ADD DUP5 PUSH2 0xF89 JUMP JUMPDEST SWAP3 SWAP2 POP POP JUMP JUMPDEST PUSH2 0xFBA DUP2 PUSH2 0xF28 JUMP JUMPDEST DUP2 EQ PUSH2 0xFC4 JUMPI PUSH0 DUP1 REVERT JUMPDEST POP JUMP JUMPDEST PUSH0 DUP2 CALLDATALOAD SWAP1 POP PUSH2 0xFD5 DUP2 PUSH2 0xFB1 JUMP JUMPDEST SWAP3 SWAP2 POP POP JUMP JUMPDEST PUSH0 DUP1 PUSH1 0x40 DUP4 DUP6 SUB SLT ISZERO PUSH2 0xFF1 JUMPI PUSH2 0xFF0 PUSH2 0xEA7 JUMP JUMPDEST JUMPDEST PUSH0 PUSH2 0xFFE DUP6 DUP3 DUP7 ADD PUSH2 0xECA JUMP JUMPDEST SWAP3 POP POP PUSH1 0x20 PUSH2 0x100F DUP6 DUP3 DUP7 ADD PUSH2 0xFC7 JUMP JUMPDEST SWAP2 POP POP SWAP3 POP SWAP3 SWAP1 POP JUMP JUMPDEST PUSH0 PUSH1 0x20 DUP3 ADD SWAP1 POP PUSH2 0x102C PUSH0 DUP4 ADD DUP5 PUSH2 0xF39 JUMP JUMPDEST SWAP3 SWAP2 POP POP JUMP JUMPDEST PUSH0 PUSH1 0x40 DUP3 ADD SWAP1 POP PUSH2 0x1045 PUSH0 DUP4 ADD DUP6 PUSH2 0xF48 JUMP JUMPDEST PUSH2 0x1052 PUSH1 0x20 DUP4 ADD DUP5 PUSH2 0xF48 JUMP JUMPDEST SWAP4 SWAP3 POP POP POP JUMP JUMPDEST PUSH0 PUSH1 0x20 DUP3 DUP5 SUB SLT ISZERO PUSH2 0x106E JUMPI PUSH2 0x106D PUSH2 0xEA7 JUMP JUMPDEST JUMPDEST PUSH0 PUSH2 0x107B DUP5 DUP3 DUP6 ADD PUSH2 0xFC7 JUMP JUMPDEST SWAP2 POP POP SWAP3 SWAP2 POP POP JUMP JUMPDEST PUSH0 PUSH1 0x10 SWAP1 POP SWAP2 SWAP1 POP JUMP JUMPDEST PUSH0 DUP2 SWAP1 POP SWAP3 SWAP2 POP POP JUMP JUMPDEST PUSH0 DUP2 SWAP1 POP SWAP2 SWAP1 POP JUMP JUMPDEST PUSH2 0x10AA DUP2 PUSH2 0xF28 JUMP JUMPDEST DUP3 MSTORE POP POP JUMP JUMPDEST PUSH0 PUSH2 0x10BB DUP4 DUP4 PUSH2 0x10A1 JUMP JUMPDEST PUSH1 0x20 DUP4 ADD SWAP1 POP SWAP3 SWAP2 POP POP JUMP JUMPDEST PUSH0 PUSH1 0x20 DUP3 ADD SWAP1 POP SWAP2 SWAP1 POP JUMP JUMPDEST PUSH2 0x10DC DUP2 PUSH2 0x1084 JUMP JUMPDEST PUSH2 0x10E6 DUP2 DUP5 PUSH2 0x108E JUMP JUMPDEST SWAP3 POP PUSH2 0x10F1 DUP3 PUSH2 0x1098 JUMP JUMPDEST DUP1 PUSH0 JUMPDEST DUP4 DUP2 LT ISZERO PUSH2 0x1121 JUMPI DUP2 MLOAD PUSH2 0x1108 DUP8 DUP3 PUSH2 0x10B0 JUMP JUMPDEST SWAP7 POP PUSH2 0x1113 DUP4 PUSH2 0x10C7 JUMP JUMPDEST SWAP3 POP POP PUSH1 0x1 DUP2 ADD SWAP1 POP PUSH2 0x10F4 JUMP JUMPDEST POP POP POP POP POP POP JUMP JUMPDEST PUSH0 PUSH2 0x200 DUP3 ADD SWAP1 POP PUSH2 0x113D PUSH0 DUP4 ADD DUP5 PUSH2 0x10D3 JUMP JUMPDEST SWAP3 SWAP2 POP POP JUMP JUMPDEST PUSH0 PUSH1 0x20 DUP3 ADD SWAP1 POP PUSH2 0x1156 PUSH0 DUP4 ADD DUP5 PUSH2 0xF48 JUMP JUMPDEST SWAP3 SWAP2 POP POP JUMP JUMPDEST PUSH0 PUSH2 0x1166 DUP3 PUSH2 0xF09 JUMP JUMPDEST SWAP1 POP SWAP2 SWAP1 POP JUMP JUMPDEST PUSH2 0x1176 DUP2 PUSH2 0x115C JUMP JUMPDEST DUP3 MSTORE POP POP JUMP JUMPDEST PUSH0 PUSH1 0x20 DUP3 ADD SWAP1 POP PUSH2 0x118F PUSH0 DUP4 ADD DUP5 PUSH2 0x116D JUMP JUMPDEST SWAP3 SWAP2 POP POP JUMP JUMPDEST PUSH0 DUP3 DUP3 MSTORE PUSH1 0x20 DUP3 ADD SWAP1 POP SWAP3 SWAP2 POP POP JUMP JUMPDEST PUSH32 0x496E76616C6964207469636B657420696E646578000000000000000000000000 PUSH0 DUP3 ADD MSTORE POP JUMP JUMPDEST PUSH0 PUSH2 0x11D9 PUSH1 0x14 DUP4 PUSH2 0x1195 JUMP JUMPDEST SWAP2 POP PUSH2 0x11E4 DUP3 PUSH2 0x11A5 JUMP JUMPDEST PUSH1 0x20 DUP3 ADD SWAP1 POP SWAP2 SWAP1 POP JUMP JUMPDEST PUSH0 PUSH1 0x20 DUP3 ADD SWAP1 POP DUP2 DUP2 SUB PUSH0 DUP4 ADD MSTORE PUSH2 0x1206 DUP2 PUSH2 0x11CD JUMP JUMPDEST SWAP1 POP SWAP2 SWAP1 POP JUMP JUMPDEST PUSH32 0x4E487B7100000000000000000000000000000000000000000000000000000000 PUSH0 MSTORE PUSH1 0x32 PUSH1 0x4 MSTORE PUSH1 0x24 PUSH0 REVERT JUMPDEST PUSH32 0x54686973207469636B657420697320616C726561647920707572636861736564 PUSH0 DUP3 ADD MSTORE POP JUMP JUMPDEST PUSH0 PUSH2 0x126E PUSH1 0x20 DUP4 PUSH2 0x1195 JUMP JUMPDEST SWAP2 POP PUSH2 0x1279 DUP3 PUSH2 0x123A JUMP JUMPDEST PUSH1 0x20 DUP3 ADD SWAP1 POP SWAP2 SWAP1 POP JUMP JUMPDEST PUSH0 PUSH1 0x20 DUP3 ADD SWAP1 POP DUP2 DUP2 SUB PUSH0 DUP4 ADD MSTORE PUSH2 0x129B DUP2 PUSH2 0x1262 JUMP JUMPDEST SWAP1 POP SWAP2 SWAP1 POP JUMP JUMPDEST PUSH32 0x4E487B7100000000000000000000000000000000000000000000000000000000 PUSH0 MSTORE PUSH1 0x11 PUSH1 0x4 MSTORE PUSH1 0x24 PUSH0 REVERT JUMPDEST PUSH0 PUSH2 0x12D9 DUP3 PUSH2 0xEAB JUMP JUMPDEST SWAP2 POP PUSH2 0x12E4 DUP4 PUSH2 0xEAB JUMP JUMPDEST SWAP3 POP DUP3 DUP3 ADD SWAP1 POP DUP1 DUP3 GT ISZERO PUSH2 0x12FC JUMPI PUSH2 0x12FB PUSH2 0x12A2 JUMP JUMPDEST JUMPDEST SWAP3 SWAP2 POP POP JUMP JUMPDEST PUSH32 0x54686973207469636B657420697320726573657276656420627920616E6F7468 PUSH0 DUP3 ADD MSTORE PUSH32 0x6572207573657200000000000000000000000000000000000000000000000000 PUSH1 0x20 DUP3 ADD MSTORE POP JUMP JUMPDEST PUSH0 PUSH2 0x135C PUSH1 0x27 DUP4 PUSH2 0x1195 JUMP JUMPDEST SWAP2 POP PUSH2 0x1367 DUP3 PUSH2 0x1302 JUMP JUMPDEST PUSH1 0x40 DUP3 ADD SWAP1 POP SWAP2 SWAP1 POP JUMP JUMPDEST PUSH0 PUSH1 0x20 DUP3 ADD SWAP1 POP DUP2 DUP2 SUB PUSH0 DUP4 ADD MSTORE PUSH2 0x1389 DUP2 PUSH2 0x1350 JUMP JUMPDEST SWAP1 POP SWAP2 SWAP1 POP JUMP JUMPDEST PUSH32 0x54696B657420626F6F6B65640000000000000000000000000000000000000000 PUSH0 DUP3 ADD MSTORE POP JUMP JUMPDEST PUSH0 PUSH2 0x13C4 PUSH1 0xC DUP4 PUSH2 0x1195 JUMP JUMPDEST SWAP2 POP PUSH2 0x13CF DUP3 PUSH2 0x1390 JUMP JUMPDEST PUSH1 0x20 DUP3 ADD SWAP1 POP SWAP2 SWAP1 POP JUMP JUMPDEST PUSH0 PUSH1 0x20 DUP3 ADD SWAP1 POP DUP2 DUP2 SUB PUSH0 DUP4 ADD MSTORE PUSH2 0x13F1 DUP2 PUSH2 0x13B8 JUMP JUMPDEST SWAP1 POP SWAP2 SWAP1 POP JUMP JUMPDEST PUSH32 0x54686973207469636B657420686173206E6F74206265656E2070757263686173 PUSH0 DUP3 ADD MSTORE PUSH32 0x6564000000000000000000000000000000000000000000000000000000000000 PUSH1 0x20 DUP3 ADD MSTORE POP JUMP JUMPDEST PUSH0 PUSH2 0x1452 PUSH1 0x22 DUP4 PUSH2 0x1195 JUMP JUMPDEST SWAP2 POP PUSH2 0x145D DUP3 PUSH2 0x13F8 JUMP JUMPDEST PUSH1 0x40 DUP3 ADD SWAP1 POP SWAP2 SWAP1 POP JUMP JUMPDEST PUSH0 PUSH1 0x20 DUP3 ADD SWAP1 POP DUP2 DUP2 SUB PUSH0 DUP4 ADD MSTORE PUSH2 0x147F DUP2 PUSH2 0x1446 JUMP JUMPDEST SWAP1 POP SWAP2 SWAP1 POP JUMP JUMPDEST PUSH32 0x596F7520617265206E6F7420746865206F776E6572206F662074686973207469 PUSH0 DUP3 ADD MSTORE PUSH32 0x636B657400000000000000000000000000000000000000000000000000000000 PUSH1 0x20 DUP3 ADD MSTORE POP JUMP JUMPDEST PUSH0 PUSH2 0x14E0 PUSH1 0x24 DUP4 PUSH2 0x1195 JUMP JUMPDEST SWAP2 POP PUSH2 0x14EB DUP3 PUSH2 0x1486 JUMP JUMPDEST PUSH1 0x40 DUP3 ADD SWAP1 POP SWAP2 SWAP1 POP JUMP JUMPDEST PUSH0 PUSH1 0x20 DUP3 ADD SWAP1 POP DUP2 DUP2 SUB PUSH0 DUP4 ADD MSTORE PUSH2 0x150D DUP2 PUSH2 0x14D4 JUMP JUMPDEST SWAP1 POP SWAP2 SWAP1 POP JUMP JUMPDEST PUSH32 0x496E76616C696420616464726573730000000000000000000000000000000000 PUSH0 DUP3 ADD MSTORE POP JUMP JUMPDEST PUSH0 PUSH2 0x1548 PUSH1 0xF DUP4 PUSH2 0x1195 JUMP JUMPDEST SWAP2 POP PUSH2 0x1553 DUP3 PUSH2 0x1514 JUMP JUMPDEST PUSH1 0x20 DUP3 ADD SWAP1 POP SWAP2 SWAP1 POP JUMP JUMPDEST PUSH0 PUSH1 0x20 DUP3 ADD SWAP1 POP DUP2 DUP2 SUB PUSH0 DUP4 ADD MSTORE PUSH2 0x1575 DUP2 PUSH2 0x153C JUMP JUMPDEST SWAP1 POP SWAP2 SWAP1 POP JUMP JUMPDEST PUSH32 0x54696B6574207472616E7366657269646F000000000000000000000000000000 PUSH0 DUP3 ADD MSTORE POP JUMP JUMPDEST PUSH0 PUSH2 0x15B0 PUSH1 0x11 DUP4 PUSH2 0x1195 JUMP JUMPDEST SWAP2 POP PUSH2 0x15BB DUP3 PUSH2 0x157C JUMP JUMPDEST PUSH1 0x20 DUP3 ADD SWAP1 POP SWAP2 SWAP1 POP JUMP JUMPDEST PUSH0 PUSH1 0x20 DUP3 ADD SWAP1 POP DUP2 DUP2 SUB PUSH0 DUP4 ADD MSTORE PUSH2 0x15DD DUP2 PUSH2 0x15A4 JUMP JUMPDEST SWAP1 POP SWAP2 SWAP1 POP JUMP JUMPDEST PUSH32 0x4E6F206572657320656C2061646D696E00000000000000000000000000000000 PUSH0 DUP3 ADD MSTORE POP JUMP JUMPDEST PUSH0 PUSH2 0x1618 PUSH1 0x10 DUP4 PUSH2 0x1195 JUMP JUMPDEST SWAP2 POP PUSH2 0x1623 DUP3 PUSH2 0x15E4 JUMP JUMPDEST PUSH1 0x20 DUP3 ADD SWAP1 POP SWAP2 SWAP1 POP JUMP JUMPDEST PUSH0 PUSH1 0x20 DUP3 ADD SWAP1 POP DUP2 DUP2 SUB PUSH0 DUP4 ADD MSTORE PUSH2 0x1645 DUP2 PUSH2 0x160C JUMP JUMPDEST SWAP1 POP SWAP2 SWAP1 POP JUMP JUMPDEST PUSH32 0x54686973207469636B65742069732066726F6D206F7468657220706572736F6E PUSH0 DUP3 ADD MSTORE POP JUMP JUMPDEST PUSH0 PUSH2 0x1680 PUSH1 0x20 DUP4 PUSH2 0x1195 JUMP JUMPDEST SWAP2 POP PUSH2 0x168B DUP3 PUSH2 0x164C JUMP JUMPDEST PUSH1 0x20 DUP3 ADD SWAP1 POP SWAP2 SWAP1 POP JUMP JUMPDEST PUSH0 PUSH1 0x20 DUP3 ADD SWAP1 POP DUP2 DUP2 SUB PUSH0 DUP4 ADD MSTORE PUSH2 0x16AD DUP2 PUSH2 0x1674 JUMP JUMPDEST SWAP1 POP SWAP2 SWAP1 POP JUMP JUMPDEST PUSH32 0x496E737566696369656E7420616D6F756E74206F6620424E4200000000000000 PUSH0 DUP3 ADD MSTORE POP JUMP JUMPDEST PUSH0 PUSH2 0x16E8 PUSH1 0x19 DUP4 PUSH2 0x1195 JUMP JUMPDEST SWAP2 POP PUSH2 0x16F3 DUP3 PUSH2 0x16B4 JUMP JUMPDEST PUSH1 0x20 DUP3 ADD SWAP1 POP SWAP2 SWAP1 POP JUMP JUMPDEST PUSH0 PUSH1 0x20 DUP3 ADD SWAP1 POP DUP2 DUP2 SUB PUSH0 DUP4 ADD MSTORE PUSH2 0x1715 DUP2 PUSH2 0x16DC JUMP JUMPDEST SWAP1 POP SWAP2 SWAP1 POP JUMP JUMPDEST PUSH32 0x54696B657420636F6D707261646F000000000000000000000000000000000000 PUSH0 DUP3 ADD MSTORE POP JUMP JUMPDEST PUSH0 PUSH2 0x1750 PUSH1 0xE DUP4 PUSH2 0x1195 JUMP JUMPDEST SWAP2 POP PUSH2 0x175B DUP3 PUSH2 0x171C JUMP JUMPDEST PUSH1 0x20 DUP3 ADD SWAP1 POP SWAP2 SWAP1 POP JUMP JUMPDEST PUSH0 PUSH1 0x20 DUP3 ADD SWAP1 POP DUP2 DUP2 SUB PUSH0 DUP4 ADD MSTORE PUSH2 0x177D DUP2 PUSH2 0x1744 JUMP JUMPDEST SWAP1 POP SWAP2 SWAP1 POP JUMP JUMPDEST PUSH32 0x41646D696E2063616D626961646F000000000000000000000000000000000000 PUSH0 DUP3 ADD MSTORE POP JUMP JUMPDEST PUSH0 PUSH2 0x17B8 PUSH1 0xE DUP4 PUSH2 0x1195 JUMP JUMPDEST SWAP2 POP PUSH2 0x17C3 DUP3 PUSH2 0x1784 JUMP JUMPDEST PUSH1 0x20 DUP3 ADD SWAP1 POP SWAP2 SWAP1 POP JUMP JUMPDEST PUSH0 PUSH1 0x20 DUP3 ADD SWAP1 POP DUP2 DUP2 SUB PUSH0 DUP4 ADD MSTORE PUSH2 0x17E5 DUP2 PUSH2 0x17AC JUMP JUMPDEST SWAP1 POP SWAP2 SWAP1 POP JUMP INVALID LOG2 PUSH5 0x6970667358 0x22 SLT KECCAK256 DUP13 TSTORE 0xBE INVALID DUP12 0xBC SDIV SWAP10 AND 0xB4 0x28 0x4B LOG0 DUP2 0xE0 0x21 0xDC SWAP4 PUSH19 0xC786620CB6FFC14AEB5E7BC49F64736F6C6343 STOP ADDMOD BYTE STOP CALLER "
		},
		"gasEstimates": {
			"creation": {
				"codeDepositCost": "1235600",
				"executionCost": "30557",
				"totalCost": "1266157"
			},
			"external": {
				"admin()": "2618",
				"balanceWei()": "2513",
				"bookTiket(uint256)": "infinite",
				"buyTiket(uint256)": "infinite",
				"changeAdmin(address)": "28725",
				"getContractBalance()": "infinite",
				"getTikets()": "infinite",
				"tikets(uint256)": "2861",
				"tiketsBooked(uint256)": "infinite",
				"transferBalanceToAdmin()": "infinite",
				"transferTiket(uint256,address)": "31243"
			}
		},
		"methodIdentifiers": {
			"admin()": "f851a440",
			"balanceWei()": "be4fb14d",
			"bookTiket(uint256)": "42ac3854",
			"buyTiket(uint256)": "8aeeae49",
			"changeAdmin(address)": "8f283970",
			"getContractBalance()": "6f9fb98a",
			"getTikets()": "8f627444",
			"tikets(uint256)": "4d63e206",
			"tiketsBooked(uint256)": "124e7ccb",
			"transferBalanceToAdmin()": "52ba15e6",
			"transferTiket(uint256,address)": "45d15e16"
		}
	},
	"abi": [
		{
			"anonymous": false,
			"inputs": [
				{
					"indexed": false,
					"internalType": "string",
					"name": "mensaje",
					"type": "string"
				}
			],
			"name": "simpleConsoleLog",
			"type": "event"
		},
		{
			"inputs": [],
			"name": "admin",
			"outputs": [
				{
					"internalType": "address payable",
					"name": "",
					"type": "address"
				}
			],
			"stateMutability": "view",
			"type": "function"
		},
		{
			"inputs": [],
			"name": "balanceWei",
			"outputs": [
				{
					"internalType": "uint256",
					"name": "",
					"type": "uint256"
				}
			],
			"stateMutability": "view",
			"type": "function"
		},
		{
			"inputs": [
				{
					"internalType": "uint256",
					"name": "tiketIndex",
					"type": "uint256"
				}
			],
			"name": "bookTiket",
			"outputs": [
				{
					"internalType": "bool",
					"name": "",
					"type": "bool"
				}
			],
			"stateMutability": "nonpayable",
			"type": "function"
		},
		{
			"inputs": [
				{
					"internalType": "uint256",
					"name": "tiketIndex",
					"type": "uint256"
				}
			],
			"name": "buyTiket",
			"outputs": [
				{
					"internalType": "bool",
					"name": "",
					"type": "bool"
				}
			],
			"stateMutability": "payable",
			"type": "function"
		},
		{
			"inputs": [
				{
					"internalType": "address",
					"name": "value",
					"type": "address"
				}
			],
			"name": "changeAdmin",
			"outputs": [],
			"stateMutability": "nonpayable",
			"type": "function"
		},
		{
			"inputs": [],
			"name": "getContractBalance",
			"outputs": [
				{
					"internalType": "uint256",
					"name": "realBalance",
					"type": "uint256"
				},
				{
					"internalType": "uint256",
					"name": "storedBalance",
					"type": "uint256"
				}
			],
			"stateMutability": "view",
			"type": "function"
		},
		{
			"inputs": [],
			"name": "getTikets",
			"outputs": [
				{
					"internalType": "address[16]",
					"name": "",
					"type": "address[16]"
				}
			],
			"stateMutability": "view",
			"type": "function"
		},
		{
			"inputs": [
				{
					"internalType": "uint256",
					"name": "",
					"type": "uint256"
				}
			],
			"name": "tikets",
			"outputs": [
				{
					"internalType": "address",
					"name": "",
					"type": "address"
				}
			],
			"stateMutability": "view",
			"type": "function"
		},
		{
			"inputs": [
				{
					"internalType": "uint256",
					"name": "",
					"type": "uint256"
				}
			],
			"name": "tiketsBooked",
			"outputs": [
				{
					"internalType": "address",
					"name": "user",
					"type": "address"
				},
				{
					"internalType": "uint256",
					"name": "timestamp",
					"type": "uint256"
				}
			],
			"stateMutability": "view",
			"type": "function"
		},
		{
			"inputs": [],
			"name": "transferBalanceToAdmin",
			"outputs": [],
			"stateMutability": "nonpayable",
			"type": "function"
		},
		{
			"inputs": [
				{
					"internalType": "uint256",
					"name": "tiketIndex",
					"type": "uint256"
				},
				{
					"internalType": "address",
					"name": "to",
					"type": "address"
				}
			],
			"name": "transferTiket",
			"outputs": [],
			"stateMutability": "nonpayable",
			"type": "function"
		}
	]
}