{
	"data": {
		"bytecode": {
			"linkReferences": {},
			"object": "60806040525f601055731973759e011d5a8b7d951c2995ac14048147fc9460115f6101000a81548173ffffffffffffffffffffffffffffffffffffffff021916908373ffffffffffffffffffffffffffffffffffffffff1602179055503480156066575f80fd5b50610b77806100745f395ff3fe60806040526004361061007a575f3560e01c80638f2839701161004d5780638f2839701461012b5780638f62744414610153578063be4fb14d1461017d578063f851a440146101a75761007a565b80634d63e2061461007e57806352ba15e6146100ba5780636f9fb98a146100d05780638aeeae49146100fb575b5f80fd5b348015610089575f80fd5b506100a4600480360381019061009f91906106b2565b6101d1565b6040516100b1919061071c565b60405180910390f35b3480156100c5575f80fd5b506100ce610204565b005b3480156100db575f80fd5b506100e4610303565b6040516100f2929190610744565b60405180910390f35b610115600480360381019061011091906106b2565b610328565b6040516101229190610785565b60405180910390f35b348015610136575f80fd5b50610151600480360381019061014c91906107c8565b6104a7565b005b34801561015e575f80fd5b506101676105ae565b6040516101749190610898565b60405180910390f35b348015610188575f80fd5b5061019161062d565b60405161019e91906108b2565b60405180910390f35b3480156101b2575f80fd5b506101bb610633565b6040516101c891906108eb565b60405180910390f35b5f81601081106101df575f80fd5b015f915054906101000a900473ffffffffffffffffffffffffffffffffffffffff1681565b60115f9054906101000a900473ffffffffffffffffffffffffffffffffffffffff1673ffffffffffffffffffffffffffffffffffffffff163373ffffffffffffffffffffffffffffffffffffffff1614610293576040517f08c379a000000000000000000000000000000000000000000000000000000000815260040161028a9061095e565b60405180910390fd5b60115f9054906101000a900473ffffffffffffffffffffffffffffffffffffffff1673ffffffffffffffffffffffffffffffffffffffff166108fc60105490811502906040515f60405180830381858888f193505050501580156102f9573d5f803e3d5ffd5b505f601081905550565b5f803073ffffffffffffffffffffffffffffffffffffffff1631601054915091509091565b5f80821015801561033a5750600f8211155b610342575f80fd5b66470de4df820000341461038b576040517f08c379a0000000000000000000000000000000000000000000000000000000008152600401610382906109c6565b60405180910390fd5b3460105f82825461039c9190610a11565b925050819055505f600190505f73ffffffffffffffffffffffffffffffffffffffff165f84601081106103d2576103d1610a44565b5b015f9054906101000a900473ffffffffffffffffffffffffffffffffffffffff1673ffffffffffffffffffffffffffffffffffffffff160361049a57335f846010811061042257610421610a44565b5b015f6101000a81548173ffffffffffffffffffffffffffffffffffffffff021916908373ffffffffffffffffffffffffffffffffffffffff1602179055507f1b30e0a556ea9ec102edf7e7869684d78efe978a98e6ea23b86dd868b33508cf60405161048d90610abb565b60405180910390a161049e565b5f90505b80915050919050565b60115f9054906101000a900473ffffffffffffffffffffffffffffffffffffffff1673ffffffffffffffffffffffffffffffffffffffff163373ffffffffffffffffffffffffffffffffffffffff1614610536576040517f08c379a000000000000000000000000000000000000000000000000000000000815260040161052d9061095e565b60405180910390fd5b8060115f6101000a81548173ffffffffffffffffffffffffffffffffffffffff021916908373ffffffffffffffffffffffffffffffffffffffff1602179055507f1b30e0a556ea9ec102edf7e7869684d78efe978a98e6ea23b86dd868b33508cf6040516105a390610b23565b60405180910390a150565b6105b6610658565b5f601080602002604051908101604052809291908260108015610623576020028201915b815f9054906101000a900473ffffffffffffffffffffffffffffffffffffffff1673ffffffffffffffffffffffffffffffffffffffff16815260200190600101908083116105da575b5050505050905090565b60105481565b60115f9054906101000a900473ffffffffffffffffffffffffffffffffffffffff1681565b604051806102000160405280601090602082028036833780820191505090505090565b5f80fd5b5f819050919050565b6106918161067f565b811461069b575f80fd5b50565b5f813590506106ac81610688565b92915050565b5f602082840312156106c7576106c661067b565b5b5f6106d48482850161069e565b91505092915050565b5f73ffffffffffffffffffffffffffffffffffffffff82169050919050565b5f610706826106dd565b9050919050565b610716816106fc565b82525050565b5f60208201905061072f5f83018461070d565b92915050565b61073e8161067f565b82525050565b5f6040820190506107575f830185610735565b6107646020830184610735565b9392505050565b5f8115159050919050565b61077f8161076b565b82525050565b5f6020820190506107985f830184610776565b92915050565b6107a7816106fc565b81146107b1575f80fd5b50565b5f813590506107c28161079e565b92915050565b5f602082840312156107dd576107dc61067b565b5b5f6107ea848285016107b4565b91505092915050565b5f60109050919050565b5f81905092915050565b5f819050919050565b610819816106fc565b82525050565b5f61082a8383610810565b60208301905092915050565b5f602082019050919050565b61084b816107f3565b61085581846107fd565b925061086082610807565b805f5b83811015610890578151610877878261081f565b965061088283610836565b925050600181019050610863565b505050505050565b5f610200820190506108ac5f830184610842565b92915050565b5f6020820190506108c55f830184610735565b92915050565b5f6108d5826106dd565b9050919050565b6108e5816108cb565b82525050565b5f6020820190506108fe5f8301846108dc565b92915050565b5f82825260208201905092915050565b7f4e6f206572657320656c2061646d696e000000000000000000000000000000005f82015250565b5f610948601083610904565b915061095382610914565b602082019050919050565b5f6020820190508181035f8301526109758161093c565b9050919050565b7f496e737566696369656e7420616d6f756e74206f6620424e42000000000000005f82015250565b5f6109b0601983610904565b91506109bb8261097c565b602082019050919050565b5f6020820190508181035f8301526109dd816109a4565b9050919050565b7f4e487b71000000000000000000000000000000000000000000000000000000005f52601160045260245ffd5b5f610a1b8261067f565b9150610a268361067f565b9250828201905080821115610a3e57610a3d6109e4565b5b92915050565b7f4e487b71000000000000000000000000000000000000000000000000000000005f52603260045260245ffd5b7f54696b657420636f6d707261646f0000000000000000000000000000000000005f82015250565b5f610aa5600e83610904565b9150610ab082610a71565b602082019050919050565b5f6020820190508181035f830152610ad281610a99565b9050919050565b7f41646d696e2063616d626961646f0000000000000000000000000000000000005f82015250565b5f610b0d600e83610904565b9150610b1882610ad9565b602082019050919050565b5f6020820190508181035f830152610b3a81610b01565b905091905056fea2646970667358221220e0c9255f4a7fbaee7f59c0d3d9df7b50a8855d5a1e0754c5e896a7fbf559566164736f6c634300081a0033",
			"opcodes": "PUSH1 0x80 PUSH1 0x40 MSTORE PUSH0 PUSH1 0x10 SSTORE PUSH20 0x1973759E011D5A8B7D951C2995AC14048147FC94 PUSH1 0x11 PUSH0 PUSH2 0x100 EXP DUP2 SLOAD DUP2 PUSH20 0xFFFFFFFFFFFFFFFFFFFFFFFFFFFFFFFFFFFFFFFF MUL NOT AND SWAP1 DUP4 PUSH20 0xFFFFFFFFFFFFFFFFFFFFFFFFFFFFFFFFFFFFFFFF AND MUL OR SWAP1 SSTORE POP CALLVALUE DUP1 ISZERO PUSH1 0x66 JUMPI PUSH0 DUP1 REVERT JUMPDEST POP PUSH2 0xB77 DUP1 PUSH2 0x74 PUSH0 CODECOPY PUSH0 RETURN INVALID PUSH1 0x80 PUSH1 0x40 MSTORE PUSH1 0x4 CALLDATASIZE LT PUSH2 0x7A JUMPI PUSH0 CALLDATALOAD PUSH1 0xE0 SHR DUP1 PUSH4 0x8F283970 GT PUSH2 0x4D JUMPI DUP1 PUSH4 0x8F283970 EQ PUSH2 0x12B JUMPI DUP1 PUSH4 0x8F627444 EQ PUSH2 0x153 JUMPI DUP1 PUSH4 0xBE4FB14D EQ PUSH2 0x17D JUMPI DUP1 PUSH4 0xF851A440 EQ PUSH2 0x1A7 JUMPI PUSH2 0x7A JUMP JUMPDEST DUP1 PUSH4 0x4D63E206 EQ PUSH2 0x7E JUMPI DUP1 PUSH4 0x52BA15E6 EQ PUSH2 0xBA JUMPI DUP1 PUSH4 0x6F9FB98A EQ PUSH2 0xD0 JUMPI DUP1 PUSH4 0x8AEEAE49 EQ PUSH2 0xFB JUMPI JUMPDEST PUSH0 DUP1 REVERT JUMPDEST CALLVALUE DUP1 ISZERO PUSH2 0x89 JUMPI PUSH0 DUP1 REVERT JUMPDEST POP PUSH2 0xA4 PUSH1 0x4 DUP1 CALLDATASIZE SUB DUP2 ADD SWAP1 PUSH2 0x9F SWAP2 SWAP1 PUSH2 0x6B2 JUMP JUMPDEST PUSH2 0x1D1 JUMP JUMPDEST PUSH1 0x40 MLOAD PUSH2 0xB1 SWAP2 SWAP1 PUSH2 0x71C JUMP JUMPDEST PUSH1 0x40 MLOAD DUP1 SWAP2 SUB SWAP1 RETURN JUMPDEST CALLVALUE DUP1 ISZERO PUSH2 0xC5 JUMPI PUSH0 DUP1 REVERT JUMPDEST POP PUSH2 0xCE PUSH2 0x204 JUMP JUMPDEST STOP JUMPDEST CALLVALUE DUP1 ISZERO PUSH2 0xDB JUMPI PUSH0 DUP1 REVERT JUMPDEST POP PUSH2 0xE4 PUSH2 0x303 JUMP JUMPDEST PUSH1 0x40 MLOAD PUSH2 0xF2 SWAP3 SWAP2 SWAP1 PUSH2 0x744 JUMP JUMPDEST PUSH1 0x40 MLOAD DUP1 SWAP2 SUB SWAP1 RETURN JUMPDEST PUSH2 0x115 PUSH1 0x4 DUP1 CALLDATASIZE SUB DUP2 ADD SWAP1 PUSH2 0x110 SWAP2 SWAP1 PUSH2 0x6B2 JUMP JUMPDEST PUSH2 0x328 JUMP JUMPDEST PUSH1 0x40 MLOAD PUSH2 0x122 SWAP2 SWAP1 PUSH2 0x785 JUMP JUMPDEST PUSH1 0x40 MLOAD DUP1 SWAP2 SUB SWAP1 RETURN JUMPDEST CALLVALUE DUP1 ISZERO PUSH2 0x136 JUMPI PUSH0 DUP1 REVERT JUMPDEST POP PUSH2 0x151 PUSH1 0x4 DUP1 CALLDATASIZE SUB DUP2 ADD SWAP1 PUSH2 0x14C SWAP2 SWAP1 PUSH2 0x7C8 JUMP JUMPDEST PUSH2 0x4A7 JUMP JUMPDEST STOP JUMPDEST CALLVALUE DUP1 ISZERO PUSH2 0x15E JUMPI PUSH0 DUP1 REVERT JUMPDEST POP PUSH2 0x167 PUSH2 0x5AE JUMP JUMPDEST PUSH1 0x40 MLOAD PUSH2 0x174 SWAP2 SWAP1 PUSH2 0x898 JUMP JUMPDEST PUSH1 0x40 MLOAD DUP1 SWAP2 SUB SWAP1 RETURN JUMPDEST CALLVALUE DUP1 ISZERO PUSH2 0x188 JUMPI PUSH0 DUP1 REVERT JUMPDEST POP PUSH2 0x191 PUSH2 0x62D JUMP JUMPDEST PUSH1 0x40 MLOAD PUSH2 0x19E SWAP2 SWAP1 PUSH2 0x8B2 JUMP JUMPDEST PUSH1 0x40 MLOAD DUP1 SWAP2 SUB SWAP1 RETURN JUMPDEST CALLVALUE DUP1 ISZERO PUSH2 0x1B2 JUMPI PUSH0 DUP1 REVERT JUMPDEST POP PUSH2 0x1BB PUSH2 0x633 JUMP JUMPDEST PUSH1 0x40 MLOAD PUSH2 0x1C8 SWAP2 SWAP1 PUSH2 0x8EB JUMP JUMPDEST PUSH1 0x40 MLOAD DUP1 SWAP2 SUB SWAP1 RETURN JUMPDEST PUSH0 DUP2 PUSH1 0x10 DUP2 LT PUSH2 0x1DF JUMPI PUSH0 DUP1 REVERT JUMPDEST ADD PUSH0 SWAP2 POP SLOAD SWAP1 PUSH2 0x100 EXP SWAP1 DIV PUSH20 0xFFFFFFFFFFFFFFFFFFFFFFFFFFFFFFFFFFFFFFFF AND DUP2 JUMP JUMPDEST PUSH1 0x11 PUSH0 SWAP1 SLOAD SWAP1 PUSH2 0x100 EXP SWAP1 DIV PUSH20 0xFFFFFFFFFFFFFFFFFFFFFFFFFFFFFFFFFFFFFFFF AND PUSH20 0xFFFFFFFFFFFFFFFFFFFFFFFFFFFFFFFFFFFFFFFF AND CALLER PUSH20 0xFFFFFFFFFFFFFFFFFFFFFFFFFFFFFFFFFFFFFFFF AND EQ PUSH2 0x293 JUMPI PUSH1 0x40 MLOAD PUSH32 0x8C379A000000000000000000000000000000000000000000000000000000000 DUP2 MSTORE PUSH1 0x4 ADD PUSH2 0x28A SWAP1 PUSH2 0x95E JUMP JUMPDEST PUSH1 0x40 MLOAD DUP1 SWAP2 SUB SWAP1 REVERT JUMPDEST PUSH1 0x11 PUSH0 SWAP1 SLOAD SWAP1 PUSH2 0x100 EXP SWAP1 DIV PUSH20 0xFFFFFFFFFFFFFFFFFFFFFFFFFFFFFFFFFFFFFFFF AND PUSH20 0xFFFFFFFFFFFFFFFFFFFFFFFFFFFFFFFFFFFFFFFF AND PUSH2 0x8FC PUSH1 0x10 SLOAD SWAP1 DUP2 ISZERO MUL SWAP1 PUSH1 0x40 MLOAD PUSH0 PUSH1 0x40 MLOAD DUP1 DUP4 SUB DUP2 DUP6 DUP9 DUP9 CALL SWAP4 POP POP POP POP ISZERO DUP1 ISZERO PUSH2 0x2F9 JUMPI RETURNDATASIZE PUSH0 DUP1 RETURNDATACOPY RETURNDATASIZE PUSH0 REVERT JUMPDEST POP PUSH0 PUSH1 0x10 DUP2 SWAP1 SSTORE POP JUMP JUMPDEST PUSH0 DUP1 ADDRESS PUSH20 0xFFFFFFFFFFFFFFFFFFFFFFFFFFFFFFFFFFFFFFFF AND BALANCE PUSH1 0x10 SLOAD SWAP2 POP SWAP2 POP SWAP1 SWAP2 JUMP JUMPDEST PUSH0 DUP1 DUP3 LT ISZERO DUP1 ISZERO PUSH2 0x33A JUMPI POP PUSH1 0xF DUP3 GT ISZERO JUMPDEST PUSH2 0x342 JUMPI PUSH0 DUP1 REVERT JUMPDEST PUSH7 0x470DE4DF820000 CALLVALUE EQ PUSH2 0x38B JUMPI PUSH1 0x40 MLOAD PUSH32 0x8C379A000000000000000000000000000000000000000000000000000000000 DUP2 MSTORE PUSH1 0x4 ADD PUSH2 0x382 SWAP1 PUSH2 0x9C6 JUMP JUMPDEST PUSH1 0x40 MLOAD DUP1 SWAP2 SUB SWAP1 REVERT JUMPDEST CALLVALUE PUSH1 0x10 PUSH0 DUP3 DUP3 SLOAD PUSH2 0x39C SWAP2 SWAP1 PUSH2 0xA11 JUMP JUMPDEST SWAP3 POP POP DUP2 SWAP1 SSTORE POP PUSH0 PUSH1 0x1 SWAP1 POP PUSH0 PUSH20 0xFFFFFFFFFFFFFFFFFFFFFFFFFFFFFFFFFFFFFFFF AND PUSH0 DUP5 PUSH1 0x10 DUP2 LT PUSH2 0x3D2 JUMPI PUSH2 0x3D1 PUSH2 0xA44 JUMP JUMPDEST JUMPDEST ADD PUSH0 SWAP1 SLOAD SWAP1 PUSH2 0x100 EXP SWAP1 DIV PUSH20 0xFFFFFFFFFFFFFFFFFFFFFFFFFFFFFFFFFFFFFFFF AND PUSH20 0xFFFFFFFFFFFFFFFFFFFFFFFFFFFFFFFFFFFFFFFF AND SUB PUSH2 0x49A JUMPI CALLER PUSH0 DUP5 PUSH1 0x10 DUP2 LT PUSH2 0x422 JUMPI PUSH2 0x421 PUSH2 0xA44 JUMP JUMPDEST JUMPDEST ADD PUSH0 PUSH2 0x100 EXP DUP2 SLOAD DUP2 PUSH20 0xFFFFFFFFFFFFFFFFFFFFFFFFFFFFFFFFFFFFFFFF MUL NOT AND SWAP1 DUP4 PUSH20 0xFFFFFFFFFFFFFFFFFFFFFFFFFFFFFFFFFFFFFFFF AND MUL OR SWAP1 SSTORE POP PUSH32 0x1B30E0A556EA9EC102EDF7E7869684D78EFE978A98E6EA23B86DD868B33508CF PUSH1 0x40 MLOAD PUSH2 0x48D SWAP1 PUSH2 0xABB JUMP JUMPDEST PUSH1 0x40 MLOAD DUP1 SWAP2 SUB SWAP1 LOG1 PUSH2 0x49E JUMP JUMPDEST PUSH0 SWAP1 POP JUMPDEST DUP1 SWAP2 POP POP SWAP2 SWAP1 POP JUMP JUMPDEST PUSH1 0x11 PUSH0 SWAP1 SLOAD SWAP1 PUSH2 0x100 EXP SWAP1 DIV PUSH20 0xFFFFFFFFFFFFFFFFFFFFFFFFFFFFFFFFFFFFFFFF AND PUSH20 0xFFFFFFFFFFFFFFFFFFFFFFFFFFFFFFFFFFFFFFFF AND CALLER PUSH20 0xFFFFFFFFFFFFFFFFFFFFFFFFFFFFFFFFFFFFFFFF AND EQ PUSH2 0x536 JUMPI PUSH1 0x40 MLOAD PUSH32 0x8C379A000000000000000000000000000000000000000000000000000000000 DUP2 MSTORE PUSH1 0x4 ADD PUSH2 0x52D SWAP1 PUSH2 0x95E JUMP JUMPDEST PUSH1 0x40 MLOAD DUP1 SWAP2 SUB SWAP1 REVERT JUMPDEST DUP1 PUSH1 0x11 PUSH0 PUSH2 0x100 EXP DUP2 SLOAD DUP2 PUSH20 0xFFFFFFFFFFFFFFFFFFFFFFFFFFFFFFFFFFFFFFFF MUL NOT AND SWAP1 DUP4 PUSH20 0xFFFFFFFFFFFFFFFFFFFFFFFFFFFFFFFFFFFFFFFF AND MUL OR SWAP1 SSTORE POP PUSH32 0x1B30E0A556EA9EC102EDF7E7869684D78EFE978A98E6EA23B86DD868B33508CF PUSH1 0x40 MLOAD PUSH2 0x5A3 SWAP1 PUSH2 0xB23 JUMP JUMPDEST PUSH1 0x40 MLOAD DUP1 SWAP2 SUB SWAP1 LOG1 POP JUMP JUMPDEST PUSH2 0x5B6 PUSH2 0x658 JUMP JUMPDEST PUSH0 PUSH1 0x10 DUP1 PUSH1 0x20 MUL PUSH1 0x40 MLOAD SWAP1 DUP2 ADD PUSH1 0x40 MSTORE DUP1 SWAP3 SWAP2 SWAP1 DUP3 PUSH1 0x10 DUP1 ISZERO PUSH2 0x623 JUMPI PUSH1 0x20 MUL DUP3 ADD SWAP2 JUMPDEST DUP2 PUSH0 SWAP1 SLOAD SWAP1 PUSH2 0x100 EXP SWAP1 DIV PUSH20 0xFFFFFFFFFFFFFFFFFFFFFFFFFFFFFFFFFFFFFFFF AND PUSH20 0xFFFFFFFFFFFFFFFFFFFFFFFFFFFFFFFFFFFFFFFF AND DUP2 MSTORE PUSH1 0x20 ADD SWAP1 PUSH1 0x1 ADD SWAP1 DUP1 DUP4 GT PUSH2 0x5DA JUMPI JUMPDEST POP POP POP POP POP SWAP1 POP SWAP1 JUMP JUMPDEST PUSH1 0x10 SLOAD DUP2 JUMP JUMPDEST PUSH1 0x11 PUSH0 SWAP1 SLOAD SWAP1 PUSH2 0x100 EXP SWAP1 DIV PUSH20 0xFFFFFFFFFFFFFFFFFFFFFFFFFFFFFFFFFFFFFFFF AND DUP2 JUMP JUMPDEST PUSH1 0x40 MLOAD DUP1 PUSH2 0x200 ADD PUSH1 0x40 MSTORE DUP1 PUSH1 0x10 SWAP1 PUSH1 0x20 DUP3 MUL DUP1 CALLDATASIZE DUP4 CALLDATACOPY DUP1 DUP3 ADD SWAP2 POP POP SWAP1 POP POP SWAP1 JUMP JUMPDEST PUSH0 DUP1 REVERT JUMPDEST PUSH0 DUP2 SWAP1 POP SWAP2 SWAP1 POP JUMP JUMPDEST PUSH2 0x691 DUP2 PUSH2 0x67F JUMP JUMPDEST DUP2 EQ PUSH2 0x69B JUMPI PUSH0 DUP1 REVERT JUMPDEST POP JUMP JUMPDEST PUSH0 DUP2 CALLDATALOAD SWAP1 POP PUSH2 0x6AC DUP2 PUSH2 0x688 JUMP JUMPDEST SWAP3 SWAP2 POP POP JUMP JUMPDEST PUSH0 PUSH1 0x20 DUP3 DUP5 SUB SLT ISZERO PUSH2 0x6C7 JUMPI PUSH2 0x6C6 PUSH2 0x67B JUMP JUMPDEST JUMPDEST PUSH0 PUSH2 0x6D4 DUP5 DUP3 DUP6 ADD PUSH2 0x69E JUMP JUMPDEST SWAP2 POP POP SWAP3 SWAP2 POP POP JUMP JUMPDEST PUSH0 PUSH20 0xFFFFFFFFFFFFFFFFFFFFFFFFFFFFFFFFFFFFFFFF DUP3 AND SWAP1 POP SWAP2 SWAP1 POP JUMP JUMPDEST PUSH0 PUSH2 0x706 DUP3 PUSH2 0x6DD JUMP JUMPDEST SWAP1 POP SWAP2 SWAP1 POP JUMP JUMPDEST PUSH2 0x716 DUP2 PUSH2 0x6FC JUMP JUMPDEST DUP3 MSTORE POP POP JUMP JUMPDEST PUSH0 PUSH1 0x20 DUP3 ADD SWAP1 POP PUSH2 0x72F PUSH0 DUP4 ADD DUP5 PUSH2 0x70D JUMP JUMPDEST SWAP3 SWAP2 POP POP JUMP JUMPDEST PUSH2 0x73E DUP2 PUSH2 0x67F JUMP JUMPDEST DUP3 MSTORE POP POP JUMP JUMPDEST PUSH0 PUSH1 0x40 DUP3 ADD SWAP1 POP PUSH2 0x757 PUSH0 DUP4 ADD DUP6 PUSH2 0x735 JUMP JUMPDEST PUSH2 0x764 PUSH1 0x20 DUP4 ADD DUP5 PUSH2 0x735 JUMP JUMPDEST SWAP4 SWAP3 POP POP POP JUMP JUMPDEST PUSH0 DUP2 ISZERO ISZERO SWAP1 POP SWAP2 SWAP1 POP JUMP JUMPDEST PUSH2 0x77F DUP2 PUSH2 0x76B JUMP JUMPDEST DUP3 MSTORE POP POP JUMP JUMPDEST PUSH0 PUSH1 0x20 DUP3 ADD SWAP1 POP PUSH2 0x798 PUSH0 DUP4 ADD DUP5 PUSH2 0x776 JUMP JUMPDEST SWAP3 SWAP2 POP POP JUMP JUMPDEST PUSH2 0x7A7 DUP2 PUSH2 0x6FC JUMP JUMPDEST DUP2 EQ PUSH2 0x7B1 JUMPI PUSH0 DUP1 REVERT JUMPDEST POP JUMP JUMPDEST PUSH0 DUP2 CALLDATALOAD SWAP1 POP PUSH2 0x7C2 DUP2 PUSH2 0x79E JUMP JUMPDEST SWAP3 SWAP2 POP POP JUMP JUMPDEST PUSH0 PUSH1 0x20 DUP3 DUP5 SUB SLT ISZERO PUSH2 0x7DD JUMPI PUSH2 0x7DC PUSH2 0x67B JUMP JUMPDEST JUMPDEST PUSH0 PUSH2 0x7EA DUP5 DUP3 DUP6 ADD PUSH2 0x7B4 JUMP JUMPDEST SWAP2 POP POP SWAP3 SWAP2 POP POP JUMP JUMPDEST PUSH0 PUSH1 0x10 SWAP1 POP SWAP2 SWAP1 POP JUMP JUMPDEST PUSH0 DUP2 SWAP1 POP SWAP3 SWAP2 POP POP JUMP JUMPDEST PUSH0 DUP2 SWAP1 POP SWAP2 SWAP1 POP JUMP JUMPDEST PUSH2 0x819 DUP2 PUSH2 0x6FC JUMP JUMPDEST DUP3 MSTORE POP POP JUMP JUMPDEST PUSH0 PUSH2 0x82A DUP4 DUP4 PUSH2 0x810 JUMP JUMPDEST PUSH1 0x20 DUP4 ADD SWAP1 POP SWAP3 SWAP2 POP POP JUMP JUMPDEST PUSH0 PUSH1 0x20 DUP3 ADD SWAP1 POP SWAP2 SWAP1 POP JUMP JUMPDEST PUSH2 0x84B DUP2 PUSH2 0x7F3 JUMP JUMPDEST PUSH2 0x855 DUP2 DUP5 PUSH2 0x7FD JUMP JUMPDEST SWAP3 POP PUSH2 0x860 DUP3 PUSH2 0x807 JUMP JUMPDEST DUP1 PUSH0 JUMPDEST DUP4 DUP2 LT ISZERO PUSH2 0x890 JUMPI DUP2 MLOAD PUSH2 0x877 DUP8 DUP3 PUSH2 0x81F JUMP JUMPDEST SWAP7 POP PUSH2 0x882 DUP4 PUSH2 0x836 JUMP JUMPDEST SWAP3 POP POP PUSH1 0x1 DUP2 ADD SWAP1 POP PUSH2 0x863 JUMP JUMPDEST POP POP POP POP POP POP JUMP JUMPDEST PUSH0 PUSH2 0x200 DUP3 ADD SWAP1 POP PUSH2 0x8AC PUSH0 DUP4 ADD DUP5 PUSH2 0x842 JUMP JUMPDEST SWAP3 SWAP2 POP POP JUMP JUMPDEST PUSH0 PUSH1 0x20 DUP3 ADD SWAP1 POP PUSH2 0x8C5 PUSH0 DUP4 ADD DUP5 PUSH2 0x735 JUMP JUMPDEST SWAP3 SWAP2 POP POP JUMP JUMPDEST PUSH0 PUSH2 0x8D5 DUP3 PUSH2 0x6DD JUMP JUMPDEST SWAP1 POP SWAP2 SWAP1 POP JUMP JUMPDEST PUSH2 0x8E5 DUP2 PUSH2 0x8CB JUMP JUMPDEST DUP3 MSTORE POP POP JUMP JUMPDEST PUSH0 PUSH1 0x20 DUP3 ADD SWAP1 POP PUSH2 0x8FE PUSH0 DUP4 ADD DUP5 PUSH2 0x8DC JUMP JUMPDEST SWAP3 SWAP2 POP POP JUMP JUMPDEST PUSH0 DUP3 DUP3 MSTORE PUSH1 0x20 DUP3 ADD SWAP1 POP SWAP3 SWAP2 POP POP JUMP JUMPDEST PUSH32 0x4E6F206572657320656C2061646D696E00000000000000000000000000000000 PUSH0 DUP3 ADD MSTORE POP JUMP JUMPDEST PUSH0 PUSH2 0x948 PUSH1 0x10 DUP4 PUSH2 0x904 JUMP JUMPDEST SWAP2 POP PUSH2 0x953 DUP3 PUSH2 0x914 JUMP JUMPDEST PUSH1 0x20 DUP3 ADD SWAP1 POP SWAP2 SWAP1 POP JUMP JUMPDEST PUSH0 PUSH1 0x20 DUP3 ADD SWAP1 POP DUP2 DUP2 SUB PUSH0 DUP4 ADD MSTORE PUSH2 0x975 DUP2 PUSH2 0x93C JUMP JUMPDEST SWAP1 POP SWAP2 SWAP1 POP JUMP JUMPDEST PUSH32 0x496E737566696369656E7420616D6F756E74206F6620424E4200000000000000 PUSH0 DUP3 ADD MSTORE POP JUMP JUMPDEST PUSH0 PUSH2 0x9B0 PUSH1 0x19 DUP4 PUSH2 0x904 JUMP JUMPDEST SWAP2 POP PUSH2 0x9BB DUP3 PUSH2 0x97C JUMP JUMPDEST PUSH1 0x20 DUP3 ADD SWAP1 POP SWAP2 SWAP1 POP JUMP JUMPDEST PUSH0 PUSH1 0x20 DUP3 ADD SWAP1 POP DUP2 DUP2 SUB PUSH0 DUP4 ADD MSTORE PUSH2 0x9DD DUP2 PUSH2 0x9A4 JUMP JUMPDEST SWAP1 POP SWAP2 SWAP1 POP JUMP JUMPDEST PUSH32 0x4E487B7100000000000000000000000000000000000000000000000000000000 PUSH0 MSTORE PUSH1 0x11 PUSH1 0x4 MSTORE PUSH1 0x24 PUSH0 REVERT JUMPDEST PUSH0 PUSH2 0xA1B DUP3 PUSH2 0x67F JUMP JUMPDEST SWAP2 POP PUSH2 0xA26 DUP4 PUSH2 0x67F JUMP JUMPDEST SWAP3 POP DUP3 DUP3 ADD SWAP1 POP DUP1 DUP3 GT ISZERO PUSH2 0xA3E JUMPI PUSH2 0xA3D PUSH2 0x9E4 JUMP JUMPDEST JUMPDEST SWAP3 SWAP2 POP POP JUMP JUMPDEST PUSH32 0x4E487B7100000000000000000000000000000000000000000000000000000000 PUSH0 MSTORE PUSH1 0x32 PUSH1 0x4 MSTORE PUSH1 0x24 PUSH0 REVERT JUMPDEST PUSH32 0x54696B657420636F6D707261646F000000000000000000000000000000000000 PUSH0 DUP3 ADD MSTORE POP JUMP JUMPDEST PUSH0 PUSH2 0xAA5 PUSH1 0xE DUP4 PUSH2 0x904 JUMP JUMPDEST SWAP2 POP PUSH2 0xAB0 DUP3 PUSH2 0xA71 JUMP JUMPDEST PUSH1 0x20 DUP3 ADD SWAP1 POP SWAP2 SWAP1 POP JUMP JUMPDEST PUSH0 PUSH1 0x20 DUP3 ADD SWAP1 POP DUP2 DUP2 SUB PUSH0 DUP4 ADD MSTORE PUSH2 0xAD2 DUP2 PUSH2 0xA99 JUMP JUMPDEST SWAP1 POP SWAP2 SWAP1 POP JUMP JUMPDEST PUSH32 0x41646D696E2063616D626961646F000000000000000000000000000000000000 PUSH0 DUP3 ADD MSTORE POP JUMP JUMPDEST PUSH0 PUSH2 0xB0D PUSH1 0xE DUP4 PUSH2 0x904 JUMP JUMPDEST SWAP2 POP PUSH2 0xB18 DUP3 PUSH2 0xAD9 JUMP JUMPDEST PUSH1 0x20 DUP3 ADD SWAP1 POP SWAP2 SWAP1 POP JUMP JUMPDEST PUSH0 PUSH1 0x20 DUP3 ADD SWAP1 POP DUP2 DUP2 SUB PUSH0 DUP4 ADD MSTORE PUSH2 0xB3A DUP2 PUSH2 0xB01 JUMP JUMPDEST SWAP1 POP SWAP2 SWAP1 POP JUMP INVALID LOG2 PUSH5 0x6970667358 0x22 SLT KECCAK256 0xE0 0xC9 0x25 PUSH0 BLOBBASEFEE PUSH32 0xBAEE7F59C0D3D9DF7B50A8855D5A1E0754C5E896A7FBF559566164736F6C6343 STOP ADDMOD BYTE STOP CALLER "
		},
		"gasEstimates": {
			"creation": {
				"codeDepositCost": "587000",
				"executionCost": "29888",
				"totalCost": "616888"
			},
			"external": {
				"admin()": "2574",
				"balanceWei()": "2469",
				"buyTiket(uint256)": "infinite",
				"changeAdmin(address)": "28681",
				"getContractBalance()": "infinite",
				"getTikets()": "infinite",
				"tikets(uint256)": "2795",
				"transferBalanceToAdmin()": "infinite"
			}
		},
		"methodIdentifiers": {
			"admin()": "f851a440",
			"balanceWei()": "be4fb14d",
			"buyTiket(uint256)": "8aeeae49",
			"changeAdmin(address)": "8f283970",
			"getContractBalance()": "6f9fb98a",
			"getTikets()": "8f627444",
			"tikets(uint256)": "4d63e206",
			"transferBalanceToAdmin()": "52ba15e6"
		}
	},
	"abi": [
		{
			"anonymous": false,
			"inputs": [
				{
					"indexed": false,
					"internalType": "string",
					"name": "mensaje",
					"type": "string"
				}
			],
			"name": "simpleConsoleLog",
			"type": "event"
		},
		{
			"inputs": [],
			"name": "admin",
			"outputs": [
				{
					"internalType": "address payable",
					"name": "",
					"type": "address"
				}
			],
			"stateMutability": "view",
			"type": "function"
		},
		{
			"inputs": [],
			"name": "balanceWei",
			"outputs": [
				{
					"internalType": "uint256",
					"name": "",
					"type": "uint256"
				}
			],
			"stateMutability": "view",
			"type": "function"
		},
		{
			"inputs": [
				{
					"internalType": "uint256",
					"name": "tiketIndex",
					"type": "uint256"
				}
			],
			"name": "buyTiket",
			"outputs": [
				{
					"internalType": "bool",
					"name": "",
					"type": "bool"
				}
			],
			"stateMutability": "payable",
			"type": "function"
		},
		{
			"inputs": [
				{
					"internalType": "address",
					"name": "value",
					"type": "address"
				}
			],
			"name": "changeAdmin",
			"outputs": [],
			"stateMutability": "nonpayable",
			"type": "function"
		},
		{
			"inputs": [],
			"name": "getContractBalance",
			"outputs": [
				{
					"internalType": "uint256",
					"name": "realBalance",
					"type": "uint256"
				},
				{
					"internalType": "uint256",
					"name": "storedBalance",
					"type": "uint256"
				}
			],
			"stateMutability": "view",
			"type": "function"
		},
		{
			"inputs": [],
			"name": "getTikets",
			"outputs": [
				{
					"internalType": "address[16]",
					"name": "",
					"type": "address[16]"
				}
			],
			"stateMutability": "view",
			"type": "function"
		},
		{
			"inputs": [
				{
					"internalType": "uint256",
					"name": "",
					"type": "uint256"
				}
			],
			"name": "tikets",
			"outputs": [
				{
					"internalType": "address",
					"name": "",
					"type": "address"
				}
			],
			"stateMutability": "view",
			"type": "function"
		},
		{
			"inputs": [],
			"name": "transferBalanceToAdmin",
			"outputs": [],
			"stateMutability": "nonpayable",
			"type": "function"
		}
	]
}